:020000041A00E0
:1000000000A00810990F001AC901001ACB01001AAC
:10001000CD01001ACF01001AD101001A0000000022
:10002000000000000000000000000000D301001AE2
:10003000D501001A00000000D701001A913C001AF7
:10004000DB01001ADB01001ADB01001A00000000CE
:10005000DB01001ADB01001ADB01001ADB01001AC8
:10006000DB01001ADB01001ADB01001ADB01001AB8
:10007000DB01001ADB01001ADB01001ADB01001AA8
:10008000DB01001ADB01001ADB01001ADB01001A98
:10009000DB01001ADB01001ADB01001ADB01001A88
:1000A000DB01001ADB01001ADB01001ADB01001A78
:1000B000DB01001ADB01001ADB01001ADB01001A68
:1000C000DB01001ADB01001ADB01001ADB01001A58
:1000D000DB01001ADB01001ADB01001ADB01001A48
:1000E000DB01001ADB01001ADB01001ADB01001A38
:1000F00000000000DB01001ADB01001ADB01001A1E
:1001000000000000DB01001ADB01001ADB01001A0D
:10011000DB01001AA0B1011A18600810CC0400001D
:100120009CB1011A00800020000000009CB1011A5F
:1001300014200010000000009CB1011A00000810FB
:10014000000000009CB1011A000000100000000037
:100150009CB1011A1060081004000000A0B1011A3F
:100160000000002000000000A0B1011A008400205F
:1001700000000000A0B1011A00C000200000000033
:10018000E86408101C2C0000008000200000000023
:100190001420001000000000000008100000000003
:1001A00000000010000000001460081000000000B3
:1001B000000000200000000000840020000000007B
:1001C00000C0002000000000FEE7FEE7FEE7FEE7BB
:1001D000FEE7FEE7FEE7FEE7FEE7FEE710B50B46AB
:1001E000401A5C1AA24203D9C45843F8044BF8E7FA
:1001F00010BD10B5034600241A1A914202D943F8E3
:10020000044BF9E710BDFFFFFFFFFFFFFFFFFFFFFC
:10021000FFFFFFFFFFFFFFFFFFFFFFFFFFFFFFFFEE
:10022000FFFFFFFFFFFFFFFFFFFFFFFFFFFFFFFFDE
:10023000FFFFFFFFFFFFFFFFFFFFFFFFFFFFFFFFCE
:10024000FFFFFFFFFFFFFFFFFFFFFFFFFFFFFFFFBE
:10025000FFFFFFFFFFFFFFFFFFFFFFFFFFFFFFFFAE
:10026000FFFFFFFFFFFFFFFFFFFFFFFFFFFFFFFF9E
:10027000FFFFFFFFFFFFFFFFFFFFFFFFFFFFFFFF8E
:10028000FFFFFFFFFFFFFFFFFFFFFFFFFFFFFFFF7E
:10029000FFFFFFFFFFFFFFFFFFFFFFFFFFFFFFFF6E
:1002A000FFFFFFFFFFFFFFFFFFFFFFFFFFFFFFFF5E
:1002B000FFFFFFFFFFFFFFFFFFFFFFFFFFFFFFFF4E
:1002C000FFFFFFFFFFFFFFFFFFFFFFFFFFFFFFFF3E
:1002D000FFFFFFFFFFFFFFFFFFFFFFFFFFFFFFFF2E
:1002E000FFFFFFFFFFFFFFFFFFFFFFFFFFFFFFFF1E
:1002F000FFFFFFFFFFFFFFFFFFFFFFFFFFFFFFFF0E
:1003000080B483B000AF0346FB710B46BB7113464C
:10031000BB800748F979BB79BA8849010B4440F89A
:10032000232000BF0C37BD465DF8047B704700BF3B
:100330000060084080B483B000AF78600B46FB706B
:100340001346BB70FA78BB78012101FA03F3194612
:100350007B6802F5086243F8221000BF0C37BD46E7
:100360005DF8047B704700BF80B483B000AF786055
:100370000B46FB701346BB70FA78BB78012101FA7B
:1003800003F319467B6802F50A6243F8221000BFA6
:100390000C37BD465DF8047B704700BF80B483B066
:1003A00000AF78607B685B6843F001027B685A604D
:1003B00000BF0C37BD465DF8047B704780B483B046
:1003C00000AF786039607B683A68DA6000BF0C374C
:1003D000BD465DF8047B704780B483B000AF7860A1
:1003E0000B46FB707B68596997F9032013465B0045
:1003F0001344012202FA03F3DB4301EA03027B68A0
:100400005A6100BF0C37BD465DF8047B704700BFE2
:1004100080B483B000AF78600B46FB707B6859698D
:1004200097F9032013465B0013440133012202FABB
:1004300003F3DB4301EA03027B685A6100BF0C3718
:10044000BD465DF8047B704780B483B000AF786030
:100450000B46FB707B68596997F9032013465B00D4
:1004600013440233012202FA03F3DB4301EA0302DD
:100470007B685A6100BF0C37BD465DF8047B70474E
:1004800080B483B000AF78600B46FB707B68996ADC
:1004900097F9032013465B001344012202FA03F389
:1004A000DB4301EA03027B689A6200BF0C37BD465A
:1004B0005DF8047B704700BF80B483B000AF786004
:1004C0000B46FB707B68996A97F9032013465B0023
:1004D00013440133012202FA03F341EA03027B6869
:1004E0009A6200BF0C37BD465DF8047B704700BFC1
:1004F00080B483B000AF78600B46FB707B68996A6C
:1005000097F9032013465B0013440233012202FAD9
:1005100003F3DB4301EA03027B689A6200BF0C37F6
:10052000BD465DF8047B704780B500AF154812F0FA
:10053000ABFEBF211348FFF741FF01211148FFF730
:100540004BFF01210F48FFF763FF01210D48FFF723
:100550007BFF01210B48FFF793FF01210948FFF7BB
:10056000ABFF01210748FFF7C3FF4D220121052002
:10057000FFF7C6FE044B20225A610248FFF70EFF28
:1005800000BF80BD0050084000700C4080B483B0B4
:1005900000AF786039607B680B2B04D805497B6815
:1005A0003A6841F8232000BF0C37BD465DF8047B54
:1005B000704700BFE864081080B483B000AF786073
:1005C0007B680B2B04D8064A7B6852F8233000E086
:1005D000002318460C37BD465DF8047B704700BF0A
:1005E000E864081080B483B000AF78607B68052BA6
:1005F00000F20D8101A252F823F000BF1506001A87
:100600006906001ABD06001A1307001A6507001ACA
:10061000BB07001A814B40F22B421A607F4B43F21A
:100620001C025A607D4B6FF07F429A607B4B7C4A84
:10063000DA607A4B97221A61784B7A4A5A61774B83
:1006400000229A61754B6FF07F42DA61734B764AF4
:100650001A62724B40F628625A62704B27229A62E5
:100660006E4B0422DA62D2E06C4B40F22B421A60ED
:100670006A4B43F21C025A60684B6FF07F429A60EB
:10068000664B6A4ADA60654B3C221A61634B654AE5
:100690005A61624B00229A61604B6FF07F42DA61CF
:1006A0005E4B634A1A625D4B41F6AF225A625B4B66
:1006B00027229A62594B0422DA62A8E0574B40F293
:1006C000AE721A60554B5B4A5A60544B6FF07F42D2
:1006D0009A60524B584ADA60504B85221A614F4B50
:1006E000564A5A614D4B4FF46C729A614B4B6FF006
:1006F0007F42DA61494B524A1A62484B40F68742C0
:100700005A62464B4FF48B729A62444BD922DA629A
:100710007DE0424B40F2AE721A60404B494A5A604B
:100720003E4B494A9A603D4B484ADA603B4B852232
:100730001A613A4B464A5A61384B40F2A7329A61E5
:10074000364B414ADA61354B424A1A62334B40F626
:1007500087425A62314B40F20B129A622F4BD922D8
:10076000DA6254E02D4B40F2AE721A602B4B314AE4
:100770005A602A4B6FF07F429A60284B364ADA6003
:10078000264B3E221A61254B2C4A5A61234B4FF4CB
:100790006C729A61214B6FF07F42DA611F4B2F4AD6
:1007A0001A621E4B40F687425A621C4B4FF48B7202
:1007B0009A621A4BD922DA6229E0184B40F22B4296
:1007C0001A60164B43F21C025A60144B6FF07F42C2
:1007D0009A60124B154ADA60104B3C221A610F4B9B
:1007E000104A5A610D4B00229A610C4B6FF07F4208
:1007F000DA610A4B0E4A1A62084B44F6F3225A6237
:10080000064B27229A62054B0422DA6200BF00BF22
:100810000C37BD465DF8047B704700BFE8640810E4
:10082000D42355004A8606003D850400D323550095
:100830005FA80800035C1100D1E27A00C8730200CF
:10084000C7210300B054110060E2FF00C6037B0023
:10085000BF730200BC210300D2E27A00DC5607001D
:1008600080B584B000AF78600023FB601AE3BE4A15
:10087000FB6852F82330BB60BB687A6802FB03F365
:10088000BB60BB68B3F1807F02D36FF07F43BB6076
:10089000BB6803F40003002B05D00A220521B348EE
:1008A000FFF748FD04E00A220521B048FFF75CFD90
:1008B0000F220121AD48FFF73DFD012005F060FE4C
:1008C0000F220121A948FFF74FFD012005F058FE36
:1008D000BB6803F48003002B05D00A220521A3483E
:1008E000FFF728FD04E00A220521A048FFF73CFDA0
:1008F0000F2201219D48FFF71DFD012005F040FE5C
:100900000F2201219948FFF72FFD012005F038FE45
:10091000BB6803F40013002B05D00A22052193487D
:10092000FFF708FD04E00A2205219048FFF71CFDAF
:100930000F2201218D48FFF7FDFC012005F020FE6C
:100940000F2201218948FFF70FFD012005F018FE55
:10095000BB6803F48013002B05D00A2205218348CD
:10096000FFF7E8FC04E00A2205218048FFF7FCFCC1
:100970000F2201217D48FFF7DDFC012005F000FE7C
:100980000F2201217948FFF7EFFC012005F0F8FD67
:10099000BB6803F40023002B05D00A22052173480D
:1009A000FFF7C8FC04E00A2205217048FFF7DCFCD1
:1009B0000F2201216D48FFF7BDFC012005F0E0FD8D
:1009C0000F2201216948FFF7CFFC012005F0D8FD77
:1009D000BB6803F48023002B05D00A22052163485D
:1009E000FFF7A8FC04E00A2205216048FFF7BCFCE1
:1009F0000F2201215D48FFF79DFC012005F0C0FD9D
:100A00000F2201215948FFF7AFFC012005F0B8FD86
:100A1000BB6803F40033002B05D00A22052153489C
:100A2000FFF788FC04E00A2205215048FFF79CFCF0
:100A30000F2201214D48FFF77DFC012005F0A0FDAC
:100A40000F2201214948FFF78FFC012005F098FD96
:100A5000BB6803F48033002B05D00A2205214348EC
:100A6000FFF768FC04E00A2205214048FFF77CFC00
:100A70000F2201213D48FFF75DFC012005F080FDBC
:100A80000F2201213948FFF76FFC012005F078FDA6
:100A9000BB6803F40043002B05D00A22052133482C
:100AA000FFF748FC04E00A2205213048FFF75CFC10
:100AB0000F2201212D48FFF73DFC012005F060FDCC
:100AC0000F2201212948FFF74FFC012005F058FDB6
:100AD000BB6803F48043002B05D00A22052123487C
:100AE000FFF728FC04E00A2205212048FFF73CFC20
:100AF0000F2201211D48FFF71DFC012005F040FDDC
:100B00000F2201211948FFF72FFC012005F038FDC5
:100B1000BB6803F40053002B05D00A2205211348BB
:100B2000FFF708FC04E00A2205211048FFF71CFC2F
:100B30000F2201210D48FFF7FDFB012005F020FDEC
:100B40000F2201210948FFF70FFC012005F018FDD5
:100B5000BB6803F48053002B0AD00A220521034806
:100B6000FFF7E8FB09E000BFE864081000400F4011
:100B70000A220521BE48FFF7F7FB0F220121BC48DE
:100B8000FFF7D8FB012005F0FBFC0F220121B8483C
:100B9000FFF7EAFB012005F0F3FCBB6803F40063F8
:100BA000002B05D00A220521B148FFF7C3FB04E062
:100BB0000A220521AE48FFF7D7FB0F220121AC48DE
:100BC000FFF7B8FB012005F0DBFC0F220121A8484C
:100BD000FFF7CAFB012005F0D3FCBB6803F4806378
:100BE000002B05D00A220521A148FFF7A3FB04E052
:100BF0000A2205219E48FFF7B7FB0F2201219C48DE
:100C0000FFF798FB012005F0BBFC0F22012198485B
:100C1000FFF7AAFB012005F0B3FCBB6803F40073E7
:100C2000002B05D00A2205219148FFF783FB04E041
:100C30000A2205218E48FFF797FB0F2201218C48DD
:100C4000FFF778FB012005F09BFC0F22012188486B
:100C5000FFF78AFB012005F093FCBB6803F4807367
:100C6000002B05D00A2205218148FFF763FB04E031
:100C70000A2205217E48FFF777FB0F2201217C48DD
:100C8000FFF758FB012005F07BFC0F22012178487B
:100C9000FFF76AFB012005F073FCBB6803F08003DB
:100CA000002B05D00A2205217148FFF743FB04E021
:100CB0000A2205216E48FFF757FB0F2201216C48DD
:100CC000FFF738FB012005F05BFC0F22012168488B
:100CD000FFF74AFB012005F053FCBB6803F040031B
:100CE000002B05D00A2205216148FFF723FB04E011
:100CF0000A2205215E48FFF737FB0F2201215C48DD
:100D0000FFF718FB012005F03BFC0F22012158489A
:100D1000FFF72AFB012005F033FCBB6803F020033A
:100D2000002B05D00A2205215148FFF703FB04E000
:100D30000A2205214E48FFF717FB0F2201214C48DC
:100D4000FFF7F8FA012005F01BFC0F2201214848AB
:100D5000FFF70AFB012005F013FCBB6803F010034A
:100D6000002B05D00A2205214148FFF7E3FA04E0F1
:100D70000A2205213E48FFF7F7FA0F2201213C48DD
:100D8000FFF7D8FA012005F0FBFB0F2201213848BC
:100D9000FFF7EAFA012005F0F3FBBB6803F0080354
:100DA000002B05D00A2205213148FFF7C3FA04E0E1
:100DB0000A2205212E48FFF7D7FA0F2201212C48DD
:100DC000FFF7B8FA012005F0DBFB0F2201212848CC
:100DD000FFF7CAFA012005F0D3FBBB6803F0040358
:100DE000002B05D00A2205212148FFF7A3FA04E0D1
:100DF0000A2205211E48FFF7B7FA0F2201211C48DD
:100E0000FFF798FA012005F0BBFB0F2201211848DB
:100E1000FFF7AAFA012005F0B3FBBB6803F0020359
:100E2000002B05D00A2205211148FFF783FA04E0C0
:100E30000A2205210E48FFF797FA0F2201210C48DC
:100E4000FFF778FA012005F09BFB0F2201210848EB
:100E5000FFF78AFA012005F093FBBB6803F001035A
:100E6000002B07D00A2205210148FFF763FA06E0AC
:100E700000400F400A2205211648FFF775FA0F229D
:100E800001211448FFF756FA012005F079FB0F22E3
:100E900001211048FFF768FA012005F071FBFB689B
:100EA0000133FB60FB680B2B7FF6E1AC0A220521C6
:100EB0000848FFF759FA0C2201210648FFF754FAB7
:100EC0000C2201210348FFF735FA00BF1037BD4659
:100ED00080BD00BF00400F4080B483B000AF0D4B19
:100EE0001B687B600AE07B68DB4323F080733B6018
:100EF000094A3B681360074B1B687B607B6803F003
:100F00008073002BEFD000BF0C37BD465DF8047B2B
:100F1000704700BF543105400431054080B483B0B0
:100F200000AF0D4B1B687B600AE07B68DB4343F03E
:100F300080733B60094A3B681360074B1B687B600A
:100F40007B6803F08073002BEFD100BF0C37BD46E8
:100F50005DF8047B704700BF543105400431054003
:100F600080B582B000AF7860FFF7D8FF084A7B6891
:100F70001360084B00221A60FFF7AEFF00BF054B5D
:100F80001B68002BFBD000BF0837BD4680BD00BFEB
:100F9000043404401060081038B572B6154B164A78
:100FA0001A60164A5A60164A4FF0FF3313605360B6
:100FB0009360D360136153619361D36162B6114C46
:100FC000114DAC4207D294E803000C3454F8042CC1
:100FD000FFF704F9F5E70D4DAC4206D254F8080BC3
:100FE00054F8041CFFF705F9F6E703F04FFC00F096
:100FF000C1F9FEE7003105400010DF10FFF7DF0107
:1010000080E200E01401001A8001001AC801001AF1
:1010100080B483B000AF0346FB710B46BB7113462F
:10102000BB800748F979BB79BA8849010B4440F87D
:10103000232000BF0C37BD465DF8047B704700BF1E
:101040000060084080B483B000AF78600B46FB704E
:101050001346BB70FA78F9787B6801F5006153F8A4
:101060002110BB78012000FA03F319437B6802F5D5
:10107000006243F8221000BF0C37BD465DF8047BC8
:10108000704700BF80B483B000AF78600B46FB7040
:101090001346BB70FA78BB78012101FA03F31946B5
:1010A0007B6802F5086243F8221000BF0C37BD468A
:1010B0005DF8047B704700BF80B483B000AF7860F8
:1010C0000B46FB701346BB70FA78BB78012101FA1E
:1010D00003F319467B6802F50A6243F8221000BF49
:1010E0000C37BD465DF8047B704700BF80B500AF8C
:1010F000214B00221A60214B00221A700C22002181
:101100001F48FFF79FFF0C2200211D48FFF7D4FF67
:10111000F02211210120FFF77BFF02220021184855
:10112000FFF7B0FF022200211548FFF78BFFF022E6
:101130000F210120FFF76CFF002200211048FFF76C
:10114000BBFF002200210E48FFF77CFFF0220021A8
:101150000020FFF75DFF012200210948FFF792FF01
:10116000012200210648FFF76DFFF0220121002037
:10117000FFF74EFF00BF80BD2065081024650810F2
:1011800000400F4080B485B000AF0023FB730A4BD2
:101190001B78002B04D1094BBB60094B7B6003E03B
:1011A000084BBB60084B7B60FB7B5BB21846143777
:1011B000BD465DF8047B70473160081074750810F7
:1011C00074790810747D0810F483081080B483B01B
:1011D00000AF78600B46FB701346BB70FA78BB78A3
:1011E000012101FA03F319467B6802F5086243F80E
:1011F000221000BF0C37BD465DF8047B704700BF6E
:1012000080B483B000AF78600B46FB701346BB70B0
:10121000FA78BB78012101FA03F319467B6802F5DD
:101220000A6243F8221000BF0C37BD465DF8047B0C
:10123000704700BF80B483B000AF78600B46FB708E
:101240001346BB70FA78BB78012101FA03F3194603
:101250007B6802F50C6243F8221000BF0C37BD46D4
:101260005DF8047B704700BF80B483B000AF786046
:101270007B6803F500530C331A687B6803F5005351
:1012800008331B689A4214BF01230023DBB21846BF
:101290000C37BD465DF8047B704700BF80B485B055
:1012A00000AF78607B6803F500530C331B687A68E5
:1012B000134403F580531B78DBB2FB737B6803F5A3
:1012C00000530C331B680133C3F30B027B6803F537
:1012D00000530C331A60FB7BDBB218461437BD4653
:1012E0005DF8047B704700BF80B500AF002200218D
:1012F0000248FFF785FF00BF80BD00BF00400F40E0
:1013000080B500AF002200210248FFF793FF00BF25
:1013100080BD00BF00400F4080B500AF012200211A
:101320000248FFF753FF00BF80BD00BF00400F40E1
:1013300080B500AF012200210248FFF761FF00BF26
:1013400080BD00BF00400F4080B483B000AF0346B3
:10135000FB71FB79002B14BF01230023DBB21A467B
:10136000034B1A7000BF0C37BD465DF8047B704715
:1013700024650810B0B58AB000AF002387F8273085
:10138000FFF7B4FE05F0C8F99D4811F019FE9D4B1A
:101390001B78A3F1300213469B0013445B001A46EE
:1013A000994B1B78303B13447B603123A3F130020F
:1013B00013469B0013445B001A463623303B13440C
:1013C000BB603223A3F1300213469B0013445B0041
:1013D0001A463223303B1344FB602023A3F1300232
:1013E00013469B0013445B001A463923303B1344D9
:1013F0003B6100237B610123BB614A234F2B05D056
:101400004A234E2B02D04A23442B01D1012200E073
:10141000002213469B0013445B001A464A234A2BC2
:1014200005D17523612B02D16C236E2B56D04A2334
:10143000462B51D04A234D2B05D17523612B02D168
:101440006C23722B46D04A23412B02D17523702B7B
:101450003ED04A234D2B05D17523612B02D16C233D
:10146000792B33D04A234A2B05D17523752B02D112
:101470006C236E2B28D04A234A2B05D17523752B5C
:1014800002D16C236C2B1DD04A23412B02D1752332
:10149000752B15D04A23532B10D04A234F2B0BD03A
:1014A0004A234E2B06D04A23442B01D1022316E0B7
:1014B0000F2314E0012312E0002310E009230EE0C3
:1014C00008230CE007230AE0062308E0052306E0D2
:1014D000042304E0032302E0022300E00123134479
:1014E000FB613223303B4FF47A7202FB03F230236C
:1014F000303B642101FB03F3D1183123A3F1300207
:1015000013469B0013445B00CA183623303B134438
:101510003B623E4B1D463C1D0FCC0FC594E80F00AF
:1015200085E80F0002F004FF03F09AF938493948C2
:1015300003F066FC00F046FE01F000FF642005F0B9
:101540005BF801F0BBFA01F035FDFFF7F1FE324820
:10155000FFF706FDFFF7E0FEFFF7C6FE0120FFF7ED
:10156000F3FE03F0D1FC2D4B1B78002B10D02C4B3D
:101570001B68002B0CD0FFF7C3FE294B00221A601A
:1015800006E02848FFF78AFE0346184604F05EFF8F
:101590002448FFF769FE0346002BF2D1224BFF22BD
:1015A0001A70FFF7EFFD034687F8273097F92720D9
:1015B0001346DB009B1ADB00134419461B4805F059
:1015C000DDFA01F0F3F901F045FC194B93F83830DE
:1015D000DBB2002B06D0164B002283F83820002007
:1015E00000F07EFA134B93F83830DBB2002BBAD000
:1015F000104B002283F83820012000F071FAB2E786
:1016000000000C40A687011AA787011A4874081029
:1016100000093D00001008400000041A246508106D
:10162000206508100000001031600810AC87011A16
:10163000A47408106874081080B483B000AF034627
:10164000FB710B46BB711346BB800748F979BB7928
:10165000BA8849010B4440F8232000BF0C37BD462F
:101660005DF8047B704700BF0060084080B483B021
:1016700000AF78600B46FB701346BB70FA78F978C0
:101680007B6801F5006153F82110BB78012000FA56
:1016900003F319437B6802F5006243F8221000BF90
:1016A0000C37BD465DF8047B704700BF80B483B043
:1016B00000AF78600B46FB701346BB70FA78F97880
:1016C0007B6801F5006153F82110BB78012000FA16
:1016D00003F3DB4319407B6802F5006243F82210F4
:1016E00000BF0C37BD465DF8047B704780B483B003
:1016F00000AF78600B46FB701346BB70FA78BB787E
:10170000012101FA03F319467B6802F5086243F8E8
:10171000221000BF0C37BD465DF8047B704700BF48
:1017200080B483B000AF78600B46FB701346BB708B
:10173000FA78BB78012101FA03F319467B6802F5B8
:101740000A6243F8221000BF0C37BD465DF8047BE7
:10175000704700BFF0B585B000AF786039603B6876
:10176000002B01D1012358E03B681D464FF00006D5
:10177000212010F0B5FE03464FF0000403FB06F1F4
:1017800005FB04F20A44A5FB030153181946254A38
:101790004FF0000312F08CFF03460C46C7E90234F9
:1017A000D7E902344FF000014FF0FF3203EA0103A2
:1017B00004EA0204234301D001232EE07B68002BBE
:1017C00012D1194ABB68D362184BDB694FEAE37444
:1017D0001A462346D7E9020112F06AFF03460C4677
:1017E0001A46124B1A6317E07B68012B12D10E4A7E
:1017F000BB6893620E4BDB694FEAE3741A462346DB
:10180000D7E9020112F054FF03460C461A46084B72
:101810001A6301E0012300E0002318461437BD4697
:10182000F0BD00BF40420F0000000A40A474081041
:101830006874081080B483B000AF786039607B684A
:10184000002B03D1094A3B68D36008E07B68012B79
:1018500003D1074A3B68D36001E0012300E0002385
:1018600018460C37BD465DF8047B7047A474081019
:101870006874081080B483B000AF78607B68002B78
:1018800009D10F4B1B68642202FB03F30D4AD26A95
:1018900093FBF2F30DE07B68012B09D10A4B1B6827
:1018A000642202FB03F3074A926A93FBF2F300E01F
:1018B000002318460C37BD465DF8047B704700BF17
:1018C000A474081000000A40687408102DE9F04F55
:1018D00089B000AFF860F86800283BD13E4B1B6828
:1018E0001D464FEAE5762B463446600278607868FC
:1018F00040EAD35078605B023B60D7E90034620174
:1019000042EAD3625901C91A62EB0402491942EB57
:1019100006024FEA821949EA91694FEA8118B8EB49
:10192000010869EB020918EB050349EB060425469B
:101930001C46212010F0D4FD03461A464FF0000348
:101940002046294612F064FE03460C46C7E90634D9
:10195000BB693CE0FA68012A37D1204A12689046F8
:101960004FEAE87941464A464FEA422B4BEAD15BBF
:101970004FEA412A51465A46540144EAD1644B0188
:101980005B1A64EB020413EB080344EB0904A601A1
:1019900046EA93669D01ED1A66EB040615EB080313
:1019A00046EB090425461C46212010F099FD03460C
:1019B0001A464FF000032046294612F029FE03463E
:1019C0000C46C7E904343B6901E04FF0FF33184689
:1019D0002437BD46BDE8F08FA47408106874081061
:1019E00080B485B000AFF860B9607A603B60FB6896
:1019F000002B09D10F4ABB68D3610E4A7B68136282
:101A00000C4A3B6853620EE0FB68012B09D10A4A7D
:101A1000BB68D361084A7B681362074A3B6853621C
:101A200001E0012300E0002318461437BD465DF8AD
:101A3000047B7047A47408106874081080B483B0E5
:101A400000AF786039603B68642B02DD64233B6043
:101A500006E03B6813F1640F02DA6FF063033B604A
:101A60007B68002B13D11A4B00225A63184A3B683B
:101A70005361174BDB6803F00103002B03D0154BB8
:101A80001B68134A9361124B0222DA6018E07B68EC
:101A9000012B13D1104B00225A630F4A3B6853614C
:101AA0000D4BDB6803F00103002B03D00B4B1B68CD
:101AB000094A9361084B0222DA6001E0012300E049
:101AC000002318460C37BD465DF8047B704700BF05
:101AD000A4740810E074081068740810EC740810FE
:101AE00080B586B000AF78607B68002B6FD1754BF6
:101AF0005B8A002B0BD1734B1A8A724B5A82714B43
:101B00009A69704B5B6913446E4A936105E06D4BB3
:101B10005B8A013B9AB26B4B5A826A4B9A696A4B59
:101B20001B68D31AFB60674B1A6BFB689A4207DA93
:101B3000654B1A68634B1B6B1344624A93610CE05C
:101B4000604B1B6B5A42FB689A4206DD5E4B1A687B
:101B50005C4B1B6BD31A5B4A93615A4BDA6AFB6886
:101B60001344584AD362574BDA6A564B5B6B9A421E
:101B700004DD544B5B6B534AD3620AE0514B1B6B41
:101B80005A42FB689A4204DD4E4B5B6B5B424D4A06
:101B9000D3624C4AFB6893624A4BDB69FA6802FBEA
:101BA00003F2484B5B6A4749896AF868411A01FBAE
:101BB00003F31A44434B1B6A4249C96A01FB03F30E
:101BC0001344BB60B968002000F006FA74E07B683B
:101BD000012B6FD13D4B5B8A002B0BD13B4B1A8AFB
:101BE0003A4B5A82394B9A69384B5B691344374AEE
:101BF000936105E0354B5B8A013B9AB2334B5A82C5
:101C0000324B9A69324B1B68D31A7B612F4B1A6B8C
:101C10007B699A4207DA2E4B1A682C4B1B6B1344D4
:101C20002A4A93610CE0294B1B6B5A427B699A420A
:101C300006DD274B1A68254B1B6BD31A234A936189
:101C4000224BDA6A7B691344204AD3621F4BDA6A5B
:101C50001E4B5B6B9A4204DD1C4B5B6B1B4AD362D1
:101C60000AE01A4B1B6B5A427B699A4204DD174B00
:101C70005B6B5B42154AD362144A7B699362134BD8
:101C8000DB697A6902FB03F2104B5B6A0F49896AD0
:101C90007869411A01FB03F31A440C4B1B6A0B4988
:101CA000C96A01FB03F313443B613969012000F069
:101CB00093F901E0012300E0002318461837BD46E0
:101CC00080BD00BFA4740810E07408106874081088
:101CD000EC74081080B582B000AF78603960396864
:101CE0007868FFF7ABFE0346002B01D0012314E018
:101CF0007B68002B03D10B4B0A229A6008E07B68BB
:101D0000012B03D1084B0A229A6001E0012304E071
:101D100006217868FFF78EFD034618460837BD4652
:101D200080BD00BFA47408106874081080B584B02A
:101D300000AF786039603B68642B02DD64233B6050
:101D400006E03B6813F1640F02DA6FF063033B6057
:101D50007B68002B12D1174BDB6AFB603B68FA688B
:101D600002FB03F3144A82FB03125211DB17D31A4E
:101D70001946002000F05EF8034616E07B68012B50
:101D800012D10C4B9B6ABB603B68BA6802FB03F341
:101D9000094A82FB03125211DB17D31A194601209C
:101DA00000F048F8034600E0012318461037BD460E
:101DB00080BD00BF00000A401F85EB51F0B585B023
:101DC00000AF786039603B681D464FEAE576212018
:101DD00010F086FB03464FF0000403FB06F105FB01
:101DE00004F20A44A5FB030153181946104A4FF0A8
:101DF000000312F05DFC03460C46C7E90234D7E944
:101E000002344FF000014FF0FF3203EA010304EA0D
:101E10000204234301D0012305E0BB68194678681A
:101E200000F008F8034618461437BD46F0BD00BF61
:101E300040420F0080B584B000AF78603960002365
:101E4000FB607B68002B03D11E4BDB6AFB6002E06A
:101E50001C4B9B6AFB603A68FB689A4202DDFB6898
:101E60003B6007E0FB685A423B689A4202DDFB6830
:101E70005B423B607B68002B06D1134B0A229A60C1
:101E8000114A3B6853600BE07B68012B06D10F4B76
:101E90000A229A600D4A3B68536001E001230DE07D
:101EA0003968786800F098F80346002B01D00123C8
:101EB00004E005217868FFF7BDFC0346184610379B
:101EC000BD4680BD00000A40A47408106874081064
:101ED00080B584B000AF786039603B68642B02DD68
:101EE00064233B6006E03B6813F1640F02DA6FF095
:101EF00063033B607B68002B12D1174BDB6AFB60EE
:101F00003B68FA6802FB03F3144A82FB0312521186
:101F1000DB17D31A1946786800F05EF8034616E01E
:101F20007B68012B12D10C4B9B6ABB603B68BA6883
:101F300002FB03F3094A82FB03125211DB17D31A87
:101F40001946786800F048F8034600E00123184677
:101F50001037BD4680BD00BF00000A401F85EB5111
:101F6000F0B585B000AF786039603B681D464FEA38
:101F7000E576212010F0B4FA03464FF0000403FB8D
:101F800006F105FB04F20A44A5FB030153181946A8
:101F9000104A4FF0000312F08BFB03460C46C7E9D2
:101FA0000234D7E902344FF000014FF0FF3203EA68
:101FB000010304EA0204234301D0012305E0BB68C6
:101FC0001946786800F008F8034618461437BD46ED
:101FD000F0BD00BF40420F0080B584B000AF786014
:101FE00039607B68002B5BD1604BDB6ABB603A6871
:101FF000BB689A4202DDBB683B6007E0BB685A429F
:102000003B689A4202DDBB685B423B60584A3B68D2
:1020100013603B68002B14D1F02207210520FFF745
:102020000BFBF02200210520FFF706FB072202210F
:102030005048FFF75BFB092202214E48FFF756FB91
:102040008FE03B68002B15DD072202214948FFF78E
:102050004DFB4649454BDA6A3B68D31A8B63F02245
:1020600007210520FFF7E8FAF12200210520FFF7FC
:10207000E3FA76E03B685B423B60092202213D487F
:10208000FFF734FB394A3B689363F12207210520AF
:10209000FFF7D2FAF02200210520FFF7CDFA60E029
:1020A0007B68012B5BD1314B9B6AFB603A68FB6814
:1020B0009A4202DDFB683B6007E0FB685A423B68DE
:1020C0009A4202DDFB685B423B602B4A3B6813602F
:1020D0003B68002B14D1F02205210520FFF7ACFA54
:1020E000F02206210520FFF7A7FA0E22022121483F
:1020F000FFF7FCFA0F2202211E48FFF7F7FA30E043
:102100003B68002B15DD0E2202211A48FFF7EEFA7C
:102110001649164B9A6A3B68D31A4B63F022052185
:102120000520FFF789FAF12206210520FFF784FA3E
:1021300017E03B685B423B600F2202210D48FFF72E
:10214000D5FA0A4A3B685363F12205210520FFF7BF
:1021500073FAF02206210520FFF76EFA01E0012351
:1021600000E0002318461037BD4680BD00000A403D
:10217000A474081000400F406874081080B582B045
:1021800000AF0346FB71FB790C4A1360FB79002B0F
:1021900008D00A4B01221A60052200210848FFF7E7
:1021A000A5FA07E0054B00221A6005220021044829
:1021B000FFF7B6FA00BF0837BD4680BD2865081096
:1021C00000400F4080B500AF212010F013F96C4B98
:1021D00007225A676A4B40F277721A67684B40F2DF
:1021E00077729A65664B674A9A60654B664A9A6051
:1021F000634B664A9A60624B654A9A60604B002264
:102200001A625F4B0022DA615D4B4FF41652DA62BC
:102210005B4B4FF416529A62594B4FF416529A6325
:10222000574B4FF416525A63072202215948FFF7C1
:102230005DFA0E2202215748FFF758FA09220221BF
:102240005448FFF753FA0F2202215248FFF74EFA83
:10225000072202214F48FFF709FA0E2202214D48BA
:10226000FFF704FA092202214A48FFF7FFF90F227B
:1022700002214848FFF7FAF9F02207210520FFF76D
:10228000DBF9F02205210520FFF7D6F9F022002125
:102290000520FFF7D1F9F02206210520FFF7CCF940
:1022A0003D4B00221A60052200213A48FFF7DEF973
:1022B000052200213748FFF733FAF02206210620D5
:1022C000FFF7BAF90D2200213248FFF7EFF9482253
:1022D00012210120FFF7B0F9294B304A5A603C2205
:1022E00000212F4812F0F8FC3C2200212D4812F06A
:1022F000F3FC2B4B0122DA602A4B0122DA60284BD7
:1023000014221A82274B14221A82254B5022DA619A
:10231000244B5022DA61224B00225A62214B0022C8
:102320005A62174BDB6A1E4AD269B3FBF2F21346BC
:102330009B0013449B001A46194B1A63104B9B6A6F
:10234000184AD269B3FBF2F213469B0013449B0078
:102350001A46144B1A630A4BDB6A134AA2FB032387
:10236000DB081A460E4B5A63054B9B6A0E4AA2FBCA
:102370000323DB081A460B4B5A6300BF80BD00BF26
:1023800000000A40000202000004040000080800E7
:102390000010100000400F402865081000010100E7
:1023A000A474081068740810CDCCCCCC80B483B071
:1023B00000AF0346FB710B46BB711346BB80074859
:1023C000F979BB79BA8849010B4440F8232000BF52
:1023D0000C37BD465DF8047B704700BF00600840C5
:1023E00080B485B000AFF860B9601346FB71FB792B
:1023F000F968BA6852010A4413441B78DBB2002B17
:1024000014BF01230023DBB218461437BD465DF824
:10241000047B704780B483B000AF78600B46FB70DC
:102420001346BB70FA78F9787B6801F5006153F8C0
:102430002110BB78012000FA03F3DB4319407B68CD
:1024400002F5006243F8221000BF0C37BD465DF86C
:10245000047B70472DE9F04792B000AFF860B96097
:102460007A60FB7000237B6400233B6407F1140354
:1024700000221A605A609A604FF000034FF0010486
:10248000C7E90A34D7E90A3413F1FF3344F1FF34C2
:10249000C7E908347B68B3F1FF3F02D102237B60B8
:1024A00005E07B6813F1020F01D10F237B60FB680D
:1024B000002B0ADA3B6C5A1C3A641A46BB68134478
:1024C0002D221A70FB685B42FB60FB681B144FEA0D
:1024D000E374C7E90C347C6C631C7B64D7E90C01A2
:1024E0004FF00A024FF0000312F0E2F8D3B230339B
:1024F000DAB207F14803234403F8342CD7E90C017E
:102500004FF00A024FF0000312F0D2F803460C46D7
:10251000C7E90C34D7E90C342343DCD10EE03B6C23
:102520005A1C3A641A46BB6813447A6C013A7A64BE
:1025300007F114017A6C0A4412781A707B6C002B34
:10254000EDDCFB78002B07D03B6C5A1C3A641A4632
:10255000BB6813442E221A70FB681B0419464FEA0D
:10256000E172D7E9083403EA010304EA0204C7E987
:102570000E34D7E90E12D7E9083403EA010304EA5E
:102580000204DB1844EB0404A60046EA93769D009F
:102590005B1944EB0604C7E90E343B6C5A1C3A64E1
:1025A0001A46BB6803EB020AD7E90E34A0464FF087
:1025B00000094FF00A024FF000034046494612F06E
:1025C00077F81C461346DBB23033DBB28AF80030B2
:1025D0007B6C01337B64D7E90E34234303D07A6CE0
:1025E0007B689A42C5DB7B6C012B0DDD3B6C013BAC
:1025F000BA6813441B78302B06D13B6C013BBA6898
:10260000134400221A7004E03B6CBA6813440022A1
:102610001A7000BF4837BD46BDE8F08780B584B06A
:1026200000AFF860B9601346FB71FB79BA680449E2
:10263000F868FFF70FFF024B18461037BD4680BD04
:102640006065081080B584B000AF78603960002301
:10265000FB600BE0FB689B007A6813441B6819461B
:10266000064804F08BFAFB680133FB60FA683B68AC
:102670009A42EFDB00BF1037BD4680BDBC87011A10
:1026800080B584B000AF786039600023FB600CE057
:10269000FB685B007A6813441B881BB21946074825
:1026A00004F06CFAFB680133FB60FA683B689A42FD
:1026B000EEDB00BF1037BD4680BD00BFC087011AEA
:1026C00080B592B000AF0346FB71FB7919467D4897
:1026D00004F054FAFB79073B0B2B00F2EF8001A2C8
:1026E00052F823F01527001A2527001A3527001A5B
:1026F0004527001A6F27001A9527001ABB27001AD2
:10270000E127001A0728001A2D28001A4B28001A62
:102710009F28001A03216C48FFF7B2FF0A2004F03B
:102720007BF8CBE003216948FFF7AAFF0A2004F0F9
:1027300073F8C3E003216648FFF7A2FF0A2004F004
:102740006BF8BBE007F1180207F11F0107F1200346
:10275000184606F01DFD07F1200303211846FFF778
:1027600071FFBB6919465B4804F008FAA6E007F15F
:10277000180207F11F0107F12003184606F0EEFCCE
:1027800007F1200303211846FFF75CFF0A2004F03D
:1027900043F893E007F1180207F11F0107F1200346
:1027A000184606F00FFD07F1200303211846FFF736
:1027B00049FF0A2004F030F880E007F1180207F121
:1027C0001F0107F12003184606F016FD07F120034C
:1027D00004211846FFF736FF0A2004F01DF86DE0CB
:1027E00007F1180207F11F0107F12003184606F050
:1027F000A3FD07F1200304211846FFF723FF0A2059
:1028000004F00AF85AE007F1180207F11F0107F176
:102810002003184606F010FF07F12003092118468F
:10282000FFF710FF0A2003F0F7FF47E007F1180257
:1028300007F11F0107F12003184606F0F9FC3B6A77
:102840001946254804F09AF938E007F10C030022F4
:102850001A605A609A6007F1180207F11F0107F128
:102860000C03184605F006F900237B640FE07B6C2F
:102870009B0007F1480213443C3B1B68BB60BB68EC
:102880001946164804F07AF97B6C01337B647B6C43
:10289000022BECDD0A2003F0BFFF00BF0EE0104B5F
:1028A0001B68002203211846FFF7B8FE01460D4BB6
:1028B0001B681A460C4804F061F900BF00BF483796
:1028C000BD4680BDC487011A306508103865081000
:1028D00040650810CC87011AD487011ABC87011AF9
:1028E0002C65081058650810DC87011A80B500AF08
:1028F0000720FFF7E5FE00BF80BD00BF80B500AF39
:102900000820FFF7DDFE00BF80BD00BF80B500AF2F
:102910000920FFF7D5FE00BF80BD00BF80B500AF26
:102920000A20FFF7CDFE00BF80BD00BF80B500AF1D
:102930000B20FFF7C5FE00BF80BD00BF80B500AF14
:102940000C20FFF7BDFE00BF80BD00BF80B500AF0B
:102950001220FFF7B5FE00BF80BD00BF80B500AFFD
:102960000D20FFF7ADFE00BF80BD00BF80B500AFFA
:102970000E20FFF7A5FE00BF80BD00BF80B500AFF1
:102980000F20FFF79DFE00BF80BD00BF80B500AFE8
:102990001020FFF795FE00BF80BD00BF80B500AFDF
:1029A0001120FFF78DFE00BF80BD00BF80B588B04D
:1029B00002AF3A4B1B78002B6DD008220521384816
:1029C000FFF70EFD0346002B65D007F10D030193C1
:1029D00007F10E030093334B334A3449344809F06E
:1029E0000BF80346002B56D12E4B1B681946304876
:1029F00004F044FC2B492F4807F0B6F82D4B1A6819
:102A0000284B1B681946104604F0D0FC00237B615C
:102A10000EE0264A7B6932F813301AB27B699B00BC
:102A200007F118010B4443F8182C7B6901337B61D3
:102A30007B69022BEDDD1B4B1A683B4600211846D3
:102A400004F0BAFB174B1B681A460021164804F025
:102A5000D1FC00233B610EE0174A3B6932F813308A
:102A60001AB23B699B0007F118010B4443F8182C7C
:102A70003B6901333B613B69022BEDDD09490E489F
:102A800008F0A6F9074B1B681A4600210A4804F013
:102A90001BFC04F07FFD1837BD4680BD5C65081047
:102AA00000400F4058650810486508103865081048
:102AB000306508102C6508104065081080B582B09C
:102AC00000AF082205217748FFF7A4FC5C22012112
:102AD0000320FFF76BFC744B00221A70002010F0EB
:102AE0000BF87249002010F03BF87149002010F0FB
:102AF0006BF8704B40F60842C3F8842C002006F0B7
:102B000001FF0346002B03D0002010F00FF8C5E0B2
:102B100005F064FF0EF0FCFE0DF04EF901200DF003
:102B200043F90CF0FDFD0DF0D7FB09F001FF0CF0AF
:102B300081F80DF023FF0DF0DDFE06F067FE05F0D5
:102B400089FF792007F000FC782007F0ABFB2820F4
:102B500007F0FAFA282007F065FB0023FB71002339
:102B6000BB8000237B8000233B803B1D184607F081
:102B7000D1FABB1C184607F057F9FB1D184607F0A1
:102B8000D9F93B46184608F0ABF9BB881A464A4BC0
:102B900093FBF2F3184604F083F8BB881A46464BC1
:102BA00093FBF2F3184604F0A1F8BB881A46424B97
:102BB00093FBF2F3184604F0C1F8404805F036FEE6
:102BC00003461A467B88DB031946104604F058F882
:102BD0003A4805F02BFE03461A46FB79DB031946FB
:102BE000104604F055F9364805F020FE03461A4613
:102BF0003B88DB031946104604F05AF9002007F021
:102C0000C5FD012007F0D4FD08F07CF92B4805F044
:102C10000DFE0346184608F085F940F2731008F0DF
:102C2000FBFC282008F064FA012007F027FF224966
:102C300000200FF095FF1C4B01221A70214B224AF5
:102C4000C3F878211F4B214AC3F8B0201D4B204AFE
:102C5000C3F89C201B4B1F4AC3F8C420194B1E4AC3
:102C6000C3F8EC20174B1D4AC3F8D820154B1C4A5B
:102C7000C3F80021134B1B4AC3F81421114B1A4A05
:102C8000C3F828210F4B194AC3F83C210D4B184AB1
:102C9000C3F850210B4B174AC3F864210837BD46CF
:102CA00080BD00BF00400F405C650810801A060020
:102CB000992A011A0060084040420F001C60081069
:102CC00028600810748108104D29001AFD28001A88
:102CD000ED28001A0D29001A2D29001A1D29001AA5
:102CE0003D29001A5D29001A6D29001A7D29001A54
:102CF0008D29001A9D29001A80B588B000AF3B606D
:102D00000346FB710B46BB7113467B717B79132B1A
:102D100002D94FF0FF3319E0BB793B7307F10C0385
:102D200001337A793968184611F0D8FE7B7901337E
:102D3000DBB207F10C02F97900200FF0B9FF03466E
:102D4000002B02D14FF0FF3300E00023184620375C
:102D5000BD4680BD80B584B002AF3B600346FB71C9
:102D60000B46BB7113467B717B79BA79F979009375
:102D70003B6800200FF0D6FF0346002B02D14FF036
:102D8000FF3300E0002318460837BD4680BD00BF72
:102D90000CB480B483B000AF78603960002318466B
:102DA0000C37BD465DF8047B02B0704780B483B039
:102DB00000AF0346FB710B46BB711346BB8007484F
:102DC000F979BB79BA8849010B4440F8232000BF48
:102DD0000C37BD465DF8047B704700BF00600840BB
:102DE00080B485B000AFF860B9601346FB71FB7921
:102DF000F968BA6852010A4413441B78DBB2002B0D
:102E000014BF01230023DBB218461437BD465DF81A
:102E1000047B704780B483B000AF78600B46FB70D2
:102E20001346BB70FA78F9787B6801F5006153F8B6
:102E30002110BB78012000FA03F3DB4319407B68C3
:102E400002F5006243F8221000BF0C37BD465DF862
:102E5000047B704780B582B000AF0222022149484E
:102E6000FFF7BEFF0346002B0CD00C22052145487E
:102E7000FFF7B6FF0346002B01D0022300E0032337
:102E80007B6006E00C2205213E48FFF7A9FF0346C0
:102E90007B603D4B1B89013303F003027B689A4240
:102EA00005D1394B1B680133374A136019E0364BA3
:102EB0001B891A467B68013303F003039A4205D14C
:102EC000314B1B68013B304A13600AE02E4B1B89D3
:102ED0001A467B689A4204D02B4B5B6801332A4A1E
:102EE00053607B689AB2284B1A810522022125483B
:102EF000FFF776FF0346002B0CD006220221214863
:102F0000FFF76EFF0346002B01D0022300E00323EE
:102F10007B6006E0062202211A48FFF761FF0346A4
:102F20007B601A4B1B89013303F003027B689A42D2
:102F300005D1164B1B680133144A136019E0134B7B
:102F40001B891A467B68013303F003039A4205D1BB
:102F50000E4B1B68013B0D4A13600AE00B4B1B89AB
:102F60001A467B689A4204D0084B5B680133074AD3
:102F700053607B689AB2054B1A8100BF0837BD4683
:102F800080BD00BF00400F40E0740810EC740810D2
:102F900080B500AF044B1A68044B1B681C21044821
:102FA00003F0ECFD00BF80BDE0740810EC74081065
:102FB000E487011A80B500AF3B4B3C4AC3F840227E
:102FC0003B4B00221A603A4B00225A60394B0022D8
:102FD0001A60384B00225A60052202213648FFF75A
:102FE00019FF402205210420FFF7E0FE06220221FE
:102FF0003148FFF70FFF402206210420FFF7D6FEDD
:10300000022202212C48FFF705FF40220221042062
:10301000FFF7CCFE0C2205212748FFF7FBFE4022DC
:1030200008210420FFF7C2FE022202212248FFF7F6
:10303000D7FE0346002B0DD00C2205211E48FFF7BA
:10304000CFFE0346002B01D0022200E00322184BE2
:103050001A8108E00C2205211748FFF7C1FE03463C
:103060009AB2134B1A81052202211348FFF7B8FECA
:103070000346002B0DD0062202210F48FFF7B0FEB9
:103080000346002B01D0022200E00322094B1A81E3
:1030900008E0062202210848FFF7A2FE03469AB282
:1030A000044B1A8100BF80BD74810810912F001A53
:1030B000E0740810EC74081000400F4080B483B036
:1030C00000AF0346FB710B46BB711346BB8007483C
:1030D000F979BB79BA8849010B4440F8232000BF35
:1030E0000C37BD465DF8047B704700BF00600840A8
:1030F00080B483B000AF78600B46FB701346BB70A2
:10310000FA78F9787B6801F5006153F82110BB78F3
:10311000012000FA03F319437B6802F5006243F8CB
:10312000221000BF0C37BD465DF8047B704700BF1E
:1031300080B483B000AF78600B46FB701346BB7061
:10314000FA78F9787B6801F5006153F82110BB78B3
:10315000012000FA03F3DB4319407B6802F50062AB
:1031600043F8221000BF0C37BD465DF8047B704762
:1031700080B483B000AF78600B46FB701346BB7021
:10318000FA78BB78012101FA03F319467B6802F54E
:10319000086243F8221000BF0C37BD465DF8047B7F
:1031A000704700BF80B483B000AF78600B46FB70FF
:1031B0001346BB70FA78BB78012101FA03F3194674
:1031C0007B6802F50A6243F8221000BF0C37BD4647
:1031D0005DF8047B704700BF80B483B000AF7860B7
:1031E0007B685B6843F001027B685A6000BF0C3764
:1031F000BD465DF8047B704780B483B000AF786053
:103200007B685B6823F001027B685A6000BF0C3763
:10321000BD465DF8047B704780B483B000AF786032
:1032200039607B683A68DA6000BF0C37BD465DF8EC
:10323000047B704780B485B000AFF8600B467A60BD
:10324000FB7297F90B20FB680632796843F822106D
:1032500000BF1437BD465DF8047B704780B483B06F
:1032600000AF78600B46FB707B68596997F90320C3
:1032700013465B001344012202FA03F3DB4301EA25
:1032800003027B685A6100BF0C37BD465DF8047BC2
:10329000704700BF80B483B000AF78600B46FB700E
:1032A0007B68596997F9032013465B001344013387
:1032B000012202FA03F341EA03027B685A6100BF6C
:1032C0000C37BD465DF8047B704700BF80B483B007
:1032D00000AF78600B46FB707B68596997F9032053
:1032E00013465B0013440133012202FA03F3DB436C
:1032F00001EA03027B685A6100BF0C37BD465DF8E6
:10330000047B704780B483B000AF78600B46FB70DD
:103310007B68596997F9032013465B001344023315
:10332000012202FA03F3DB4301EA03027B685A61DC
:1033300000BF0C37BD465DF8047B704780B582B096
:1033400000AFA04BA04A1A609E4B02221A739D4BFD
:1033500002225A739B4B03229A739A4B0422DA730C
:10336000984B05221A74974B05225A74954B0322E9
:103370009A74944B0422DA74924B06221A83914B6E
:1033800006225A838F4B04229A828E4B0422DA82C1
:103390008C4B00229A838B4B0122DA83894B0022CB
:1033A0005A60884B00229A60864B00221A84854B13
:1033B00000225A84834B00225A620322052183484B
:1033C000FFF7F0FE042205218048FFF7EBFE032201
:1033D00005217E48FFF7ACFE042205217B48FFF75C
:1033E000A7FE784B9B8A1A4603210220FFF766FE50
:1033F000744BDB8A1A4604210220FFF75FFE714BF3
:10340000734A9A626F4B062283F834206D4B062272
:1034100083F835206B4B072283F83620694B08224E
:1034200083F83720674B052283F83820654B052247
:1034300083F83920634B0F2283F83A20614B102226
:1034400083F83B205F4B0522A3F840205D4B05220B
:10345000A3F842205B4B04229A875A4B0422DA8756
:10346000584B0022A3F84420564B0122A3F84620D3
:10347000544B0022DA62534B00221A63514B002254
:10348000A3F848204F4B0022A3F84A204D4B0022BE
:10349000DA640F2205214D48FFF784FE1022052132
:1034A0004A48FFF77FFE0F2205214848FFF740FEFC
:1034B000102205214548FFF73BFE424B9B8F1A46E1
:1034C00007210620FFF7FAFD3E4BDB8F1A46082145
:1034D0000620FFF7F3FD3B4B3E4A1A65394B0222AB
:1034E00083F85C20374B022283F85D20354B08229D
:1034F00083F85E20334B092283F85F20314B05228D
:1035000083F860202F4B012283F861202D4B072286
:1035100083F862202B4B0A2283F86320294B012277
:10352000A3F86820274B0122A3F86A20254B042228
:10353000A3F86420234B0022A3F86620214B00222D
:10354000A3F86C201F4B0322A3F86E201D4B002212
:103550005A651C4B00229A651A4B0022A3F8702072
:10356000184B0022A3F87220164B00225A6707223C
:1035700005211648FFF716FE0A2201211348FFF71E
:1035800011FE072205211148FFF7D2FD0A22012171
:103590000E48FFF7CDFD0B4BB3F864301A460821F7
:1035A0000220FFF78BFD074BB3F866301A4609215E
:1035B0000220FFF783FD00237B607BE000233B605C
:1035C00072E000BFF874081000400C4000400F404B
:1035D00000300C40004008403A497A6813469B008E
:1035E0001344DB000B44186836497A6813469B0085
:1035F00013449B003A6813440C335B000B449B88D4
:10360000DBB25BB21946FFF761FE2E497A681346BA
:103610009B001344DB000B4418682A497A68134660
:103620009B0013449B003A6813440C335B000B442B
:103630009B88DBB25BB21946FFF764FE21497A68CA
:1036400013469B001344DB000B4418681D497A683D
:1036500013469B0013449B003A6813440C335B00F1
:103660000B449B88DBB25BB21946FFF7F7FD1549A7
:103670007A6813469B001344DB000B441868114919
:103680007A6813469B0013449B003A6813440C333A
:103690005B000B449B88DBB25BB2012201210FF07F
:1036A00031FE3B6801333B603B68012B94DD7B6856
:1036B00001337B607B68022B80DD00BF0837BD468D
:1036C00080BD00BFF874081090B585B000AF034608
:1036D0003960FB71FB79022B01D9012334E19C4B4A
:1036E0001B78002B04D0FB79002B01D101232BE1A7
:1036F000FA79984913469B001344DB000B441B687E
:10370000FB60FA79934913469B001344DB000B449A
:1037100024333A681A603B68002B40F0B780F868A1
:103720000FF0C2FD00220221F868FFF783FDFA794D
:10373000884913469B001344DB000B4420330022CE
:103740001A80FA79834913469B001344DB000B442B
:10375000223300221A80FA797E4913469B001344D3
:10376000DB000B4410331878FA797A4913469B0032
:103770001344DB000B4412331B781A46014676488B
:10378000FFF7D6FCFA79734913469B001344DB001C
:103790000B4411331878FA796E4913469B00134491
:1037A000DB000B4413331B781A4601466A48FFF7C7
:1037B000BFFCFA79674913469B001344DB000B44B6
:1037C00010331878FA79634913469B001344DB00E1
:1037D0000B4412331B781A4601465F48FFF7E2FCA0
:1037E000FA795C4913469B001344DB000B44113308
:1037F0001878FA79574913469B001344DB000B44B1
:1038000013331B781A4601465348FFF7CBFCFA796D
:10381000504913469B001344DB000B440C331878CB
:10382000FA794C4913469B001344DB000B440E33DA
:103830001C78FA79474913469B001344DB000B447C
:1038400014331B881A462146FFF738FCFA794149A0
:1038500013469B001344DB000B440D331878FA79B0
:103860003C4913469B001344DB000B440F331C7888
:10387000FA79384913469B001344DB000B44163396
:103880001B881A462146FFF719FC5CE0F8680FF028
:10389000FBFCF868FFF7B0FCF8680FF015FDBF21DE
:1038A000F868FFF7B9FC0221F868FFF7F3FC022182
:1038B000F868FFF727FD0221F868FFF7CFFC3A68A8
:1038C0000221F868FFF7B6FCFA79224913469B00FB
:1038D0001344DB000B4420331B88002B0DD0FA79F6
:1038E0001C4913469B001344DB000B4404331A6845
:1038F000FB790021184600F06FF8FA791549134654
:103900009B001344DB000B4422331B88002B0DD09B
:10391000FA79104913469B001344DB000B4408332B
:103920001A68FB790121184600F056F8022302229A
:103930000021F8680FF0E6FCFB684FF0FF321A60D8
:10394000F868FFF749FC002318461437BD4690BDC0
:1039500018650810F874081000400F4080B582B058
:1039600000AF03463A60FB710B46BB71BB79012B7C
:1039700002D8FB79022B01D9012323E0134B1B78DA
:10398000002B04D0FB79002B01D101231AE03B6806
:10399000642B01D964233B60FA790D4913469B00DF
:1039A0001344DB000B4424331B683A6802FB03F327
:1039B000084AA2FB03235A09B979FB79184600F09B
:1039C0000BF8034618460837BD4680BD1865081039
:1039D000F87408101F85EB51B0B584B000AF0346F2
:1039E0003A60FB710B46BB71BB79012B02D8FB79A6
:1039F000022B01D9012327E1954B1B78002B04D022
:103A0000FB79002B01D101231EE1FA79914913467C
:103A10009B001344DB000B441B68FB60FA79B97907
:103A20008C4813469B0013445B000B449B000344EB
:103A30003A685A60FA79B979864813469B0013446C
:103A40009B000B441033012220F813203B68002B0D
:103A50005DD1FA79B9797F4813469B001344DB00A6
:103A600003440B4410331C78FA79B979794813462A
:103A70009B001344DB0003440B4412331B781A46AB
:103A800021467548FFF734FBFA79B9797148134636
:103A90009B001344DB0003440B4410331C78FA7979
:103AA000B9796C4813469B001344DB0003440B4474
:103AB00012331B781A4621466748FFF773FBFA79E1
:103AC000B979644813469B001344DB0003440B445C
:103AD0000C331C78FA79B9795E4813469B0013447D
:103AE000DB0003440B440E331D78FA79B979594849
:103AF00013469B0013449B000B4408335B000344B4
:103B00009B881A4629462046FFF7D8FA9BE0FB68B7
:103B10001A6A3B689A425DD8FA79B9794D481346DA
:103B20009B001344DB0003440B4410331C78FA79E8
:103B3000B979484813469B001344DB0003440B4407
:103B400012331B781A4621464348FFF7D1FAFA7917
:103B5000B979404813469B001344DB0003440B44EF
:103B600010331C78FA79B9793A4813469B0013440C
:103B7000DB0003440B4412331B781A4621463648B7
:103B8000FFF7F6FAFA79B979324813469B001344E5
:103B9000DB0003440B440C331C78FA79B9792D48C7
:103BA00013469B001344DB0003440B440E331D7883
:103BB000FA79B979274813469B0013449B000B44BC
:103BC00008335B0003449B881A4629462046FFF7CA
:103BD00075FA38E0FA79B9791E4813469B00134408
:103BE0009B000B440C335B0003449B88DBB25BB24D
:103BF0003A681946F868FFF71DFBFA79B979154854
:103C000013469B001344DB0003440B440C331C7825
:103C1000FA79B9790F4813469B001344DB0003443B
:103C20000B440E331D78FA79B9790A4813469B0084
:103C300013449B000B440C3330F813301A462946CA
:103C40002046FFF73BFA002318461037BD46B0BDAB
:103C500018650810F874081000400F4080B483B055
:103C600000AF0346FB710B46BB711346BB80074890
:103C7000F979BB79BA8849010B4440F8232000BF89
:103C80000C37BD465DF8047B704700BF00600840FC
:103C900080B500AFA14B1B8801339AB29F4B1A80AD
:103CA0009E4B1B8841F28732934240F285809B4BAA
:103CB00000221A809A4BDB6803F00403002B3AD0F1
:103CC000974B9B68002B31D1954BDB6803F00103C8
:103CD000002B17D0924B5B68002B2CD0904B5B686D
:103CE0005A2202FB03F38F4A82FB03125211DB17A5
:103CF000D31A8B4A53608A4B5B6819460020FEF743
:103D00006BF918E0864B5B69002B05DD844B5B6922
:103D1000013B834A53610EE0814B5B69002B0ADA59
:103D20007F4B5B6901337E4A536104E07C4B9B68A7
:103D3000013B7B4A93607C4BDB6803F00403002B60
:103D40003AD0794B9B68002B31D1774BDB6803F07D
:103D50000103002B17D0744B5B68002B2CD0724BE7
:103D60005B685A2202FB03F36E4A82FB0312521174
:103D7000DB17D31A6C4A53606B4B5B681946012002
:103D8000FEF72AF918E0684B5B69002B05DD664BEE
:103D90005B69013B644A53610EE0634B5B69002B36
:103DA0000ADA614B5B6901335F4A536104E05E4BA1
:103DB0009B68013B5C4A93605C4B1B88322B16D19D
:103DC0005A4B00221A80564BDB6803F00203002B8B
:103DD00003D0534B012283F83820534BDB6803F0A8
:103DE0000203002B03D0504B012283F83820504BA4
:103DF0001B8801339AB24E4B1A804D4B1B884CF2F4
:103E00004F32934214D94B4B03F5C0430C331B681C
:103E1000494A1360BFF34F8F464B03F5C0430C3341
:103E200000221A60424B00221A80444B01221A6081
:103E3000434B1B78002B37D1424B1B88DB00424A97
:103E400013441A46062141480DF03EFE0346012B5D
:103E500061D13C4B1B88DB003D4A13441A460721C5
:103E60003A480DF031FE0346012B54D1354B1B88E7
:103E700001339AB2334B1A80324B1B88802B4AD1C4
:103E8000304B00221A802E4B1B78002B0CBF0123D5
:103E90000023DBB21A462A4B1A702E4B00221A70EE
:103EA0002D4802F0DBFC36E0264B1B88DB002B4A5A
:103EB00013441A46062125480DF006FE0346012B41
:103EC00029D1204B1B88DB00254A13441A460721C1
:103ED0001E480DF0F9FD0346012B1CD1194B1B8820
:103EE00001339AB2174B1A80164B1B88802B12D1C4
:103EF000144B00221A80124B1B78002B0CBF01239D
:103F00000023DBB21A460E4B1A70124B01221A70B4
:103F1000144802F0A3FC00BF80BD00BF8C650810F0
:103F2000A47408101F85EB51687408108E65081082
:103F300090650810000008107C65081020650810C6
:103F40008A650810886508107475081000400E40D6
:103F50007479081031600810F087011A747D081018
:103F6000F4830810F887011A80B584B000AF0346C7
:103F70000A46FB711346BB7107F10E02BB79194665
:103F80000A480DF0A1FD0346012B06D1FB79FA8901
:103F90001946074802F0F2FD04E0FB79194605488E
:103FA00002F0ECFD00BF1037BD4680BD00400E4062
:103FB000FC87011A0888011A80B500AF0022012190
:103FC00006480DF093FD012104480DF0E3FD0122A8
:103FD000012102480DF0B2FD00BF80BD00400E403F
:103FE00080B582B000AFBB1C1A4601210C480DF011
:103FF0006BFD0346012B0CD17B881A4647F6500314
:1040000003FB02F39B127B607968064802F0B6FD61
:1040100002E0054802F022FC00BF0837BD4680BD23
:1040200000400E401488011A1C88011A80B500AFA8
:104030000022012106480DF059FD012104480DF030
:10404000A9FD0122022102480DF078FD00BF80BDCC
:1040500000400E4080B500AF02210120FFF784FF31
:1040600000BF80BD80B500AF0022012106480DF0E1
:104070003DFD012104480DF08DFD01220321024880
:104080000DF05CFD00BF80BD00400E4080B500AF6C
:1040900003210220FFF768FF00BF80BD80B500AF9D
:1040A0000022012106480DF021FD012104480DF0F8
:1040B00071FD0122042102480DF040FD00BF80BDCA
:1040C00000400E4080B500AF04210320FFF74CFFF5
:1040D00000BF80BD80B500AF0022012106480DF071
:1040E00005FD012104480DF055FD0122052102487E
:1040F0000DF024FD00BF80BD00400E4080B500AF34
:1041000005210420FFF730FF00BF80BD80B500AF60
:104110000022012106480DF0E9FC012104480DF0C0
:1041200039FD0122062102480DF008FD00BF80BDC7
:1041300000400E4080B500AF06210520FFF714FFB8
:1041400000BF80BD80B500AF0022012106480DF000
:10415000CDFC012104480DF01DFD0122072102487C
:104160000DF0ECFC00BF80BD00400E4080B500AFFC
:1041700007210620FFF7F8FE00BF80BDF0B583B031
:1041800002AF0020FDF7A2FB05460120FDF79EFBD4
:1041900006460020FDF76EFB04460120FDF76AFB92
:1041A00003460193009433462A461321034802F044
:1041B000E5FC00BF0437BD46F0BD00BF2488011AEE
:1041C00080B500AF172201210420FFF747FD172219
:1041D00003210420FFF742FD0E4A0E4BD3F8883C22
:1041E00043F00303C2F8883C002201210A480DF085
:1041F0007DFC012108480DF0CDFC0122002106487C
:104200000DF09CFC0122012103480DF097FC00BF3A
:1042100080BD00BF0060084000300E402DE9F04333
:1042200089B002AF4FF0FF334FF0FF34C7E90434D9
:104230004FF0FF334FF0FF34C7E90234BB1D1A467D
:10424000002130480DF040FC0346012B21D1FB88B2
:104250009BB24FF000042C4A02FB04F1002202FB47
:1042600003F20A442849A3FB0134224414464FEACE
:10427000932848EA84584FEA94294FF47A724FF011
:1042800000034046494610F013FA03460C46C7E9BE
:1042900004343B1D1A4601211A480DF015FC034653
:1042A000012B1FD1BB889BB24FF00004164A02FBC2
:1042B00004F1002202FB03F20A441349A3FB013478
:1042C000224414469D0A45EA8455A60A4FF47A72A0
:1042D0004FF000032846314610F0EAF903460C4639
:1042E000C7E90234D7E90234CDE90034D7E9042321
:1042F0001421064802F042FC00BF1C37BD46BDE851
:10430000F08300BF00300E40404A874D3888011AC4
:1043100080B500AF044B1B681A461521034802F014
:104320002DFC00BF80BD00BF7C6508104488011AC9
:1043300080B582B000AF654965480DF081FB002271
:10434000002163480DF0D2FB604962480DF078FB14
:10435000002200215F480DF0C9FB5F4B00221A705C
:104360005E4B00221A6000237B604DE05C4A7B6854
:10437000002142F823105B497A6813469B001344DE
:104380009B000B4400221A7056497A6813469B0022
:1043900013449B000B44013300221A7051497A6880
:1043A00013469B0013449B000B44043300221A6005
:1043B0004C497A6813469B0013449B000B44083316
:1043C00000221A6047497A6813469B0013449B00F9
:1043D0000B4402334FF6FF721A8042497A68134643
:1043E0009B0013449B000B440C3300221A603D4990
:1043F0007A6813469B0013449B000B441033002241
:104400001A607B6801337B607B681F2BAEDD354B08
:10441000354ADA60334B354A1A61324B344A1A62F4
:10442000304B344A5A622F4B334A5A632D4B334A2E
:104430009A632C4B324A9A642A4B324ADA64294BEB
:10444000314ADA65274B314A1A66264B304A1A67D9
:10445000244B304A5A67234B2F4AC3F88420214B00
:104460002E4AC3F888201F4B2D4AC3F89C211D4BB0
:104470002C4AC3F8A0211B4B2B4AC3F88C21194BA3
:104480002A4AC3F8B421FFF741FEFFF75BFE69201B
:104490000EF026F803461B09254AA2FB0323DB097D
:1044A000013B3B603B68B3F1807F02D36FF07F43F9
:1044B0003B60204A3B6853601E4A1E4B1B6843F01A
:1044C0000703136000BF0837BD4680BD8065081034
:1044D00000300E4000400E407075081074880810BF
:1044E000F487081074810810B93F001AE13F001AE0
:1044F0002D40001A5540001A6540001A8D40001AE0
:104500009D40001AC540001AD540001AFD40001A0F
:104510000D41001A3541001A4541001A6D41001A3B
:10452000C141001A1D42001A7D41001A1143001AB0
:10453000C55A7C0A10E000E080B586B000AFF86094
:104540000B467A60FB7200237B6112E001227B69DB
:1045500002FA03F31A46FB681340002B06D07B696E
:10456000DBB2F97A7A68184600F00AF87B69013301
:104570007B617B691F2BE9DD00BF1837BD4680BD1D
:1045800080B584B000AF03463A60FB710B46BB7147
:10459000FB791F2B00F2E380FA79744913469B00E4
:1045A00013449B000B4410331B68002B00F0D98090
:1045B0006F4A6F4B1B6823F001031360BB79002B1C
:1045C00073D0FA79694913469B0013449B000B444E
:1045D00002331B881BB2B3F1FF3F5BD1FA79634909
:1045E00013469B0013449B000B4408333A681A603F
:1045F000FA795E4913469B0013449B000B44043335
:104600003A681A605B4B1A68531C5A490B60F97977
:104610000B469B000B449B0054490B44564941F800
:104620002230FA79534B1B689BB2013B9BB298B284
:104630004E4913469B0013449B000B440233024631
:104640001A80FA79494913469B0013449B000B4496
:104650001B78002B7CD1FA79444913469B00134404
:104660009B000B4401221A70FA79404913469B00C3
:1046700013449B000B440C331B68002B68D0FA7961
:104680003A4913469B0013449B000B440C331B68B0
:1046900098475DE0FA79354913469B0013449B0027
:1046A0000B4404333A681A6052E0FA792F491346F2
:1046B0009B0013449B000B4402331B881BB2B3F1D5
:1046C000FF3F45D0FA79294913469B0013449B00CC
:1046D0000B4402331B881AB2264B1B68013B9A42DB
:1046E0001CD0FA79214913469B0013449B000B44CC
:1046F00002331B881BB2FB600BE0FB6801331E4AD0
:1047000052F823201C49FB6841F82320FB68013341
:10471000FB60FA68174B1B689A42EED3FA7913498B
:1047200013469B0013449B000B4402334FF6FF7269
:104730001A80FA790D4913469B0013449B000B44E1
:10474000013300221A700B4B1B68013B094A1360AE
:10475000074A074B1B6843F00103136002E000BFE8
:1047600000E000BF1037BD4680BD00BF7481081057
:1047700010E000E074880810F487081080B584B059
:1047800000AF78600023FB604BE00122FB6802FA77
:1047900003F31A467B681340002B3FD02449FA6884
:1047A00013469B0013449B000B441B78002B20D125
:1047B0001F49FA6813469B0013449B000B440122D7
:1047C0001A701B49FA6813469B0013449B000B4464
:1047D0000C331B68002B09D01549FA6813469B005F
:1047E00013449B000B440C331B689847642001F072
:1047F000C7FE0F49FA6813469B0013449B000B4405
:1048000010331B68002B09D00949FA6813469B0036
:1048100013449B000B4410331B689847FB6801331B
:10482000FB60FB681F2BB0DD00BF1037BD4680BDAD
:104830007481081080B485B000AF786039607B68FF
:104840005B6823F00F03FB60FA683B681A437B68E0
:104850005A6000BF1437BD465DF8047B704700BF47
:1048600080B500AF08480DF09BFE012106480DF011
:10487000C3FE08210448FFF7DDFF4FF4B77102487B
:104880000DF0A0FE00BF80BD00100E4080B582B0CC
:1048900000AF0A4B7B600A4A7B681A600DF0C6FEC7
:1048A0000122084901200EF06FFC0DF091F90EF085
:1048B000E5FA00BF0837BD4680BD00BF08ED00E047
:1048C0000000001A00B0710B80B483B000AF034643
:1048D000FB71094997F907305B09FA7902F01F0269
:1048E000012000FA02F2203341F8232000BF0C37E8
:1048F000BD465DF8047B704700E100E080B483B002
:1049000000AF0346FB710B46BB711346BB800748E3
:10491000F979BB79BA8849010B4440F8232000BFDC
:104920000C37BD465DF8047B704700BF006008404F
:1049300080B483B000AF78600B46FB701346BB7049
:10494000FA78F9787B6801F5006153F82110BB789B
:10495000012000FA03F319437B6802F5006243F873
:10496000221000BF0C37BD465DF8047B704700BFC6
:1049700080B483B000AF78600B46FB701346BB7009
:10498000FA78F9787B6801F5006153F82110BB785B
:10499000012000FA03F3DB4319407B6802F5006253
:1049A00043F8221000BF0C37BD465DF8047B70470A
:1049B00080B483B000AF78600B46FB701346BB70C9
:1049C000FA78BB78012101FA03F319467B6802F5F6
:1049D000086243F8221000BF0C37BD465DF8047B27
:1049E000704700BF80B483B000AF78600B46FB70A7
:1049F0001346BB70FA78BB78012101FA03F319461C
:104A00007B6802F50A6243F8221000BF0C37BD46EE
:104A10005DF8047B704700BF80B483B000AF78605E
:104A20000B46FB70FA787B68083253F82230184640
:104A30000C37BD465DF8047B704700BF80B483B07F
:104A400000AF78607B685B6843F001027B685A6066
:104A500000BF0C37BD465DF8047B704780B483B05F
:104A600000AF78607B685B6823F001027B685A6066
:104A700000BF0C37BD465DF8047B704780B483B03F
:104A800000AF786039607B683A68DA6000BF0C3745
:104A9000BD465DF8047B704780B485B000AFF86018
:104AA0000B467A60FB7297F90B20FB680632796837
:104AB00043F8221000BF1437BD465DF8047B7047F1
:104AC00080B483B000AF78600B46FB707B68596997
:104AD00097F9032013465B001344012202FA03F303
:104AE000DB4301EA03027B685A6100BF0C37BD4615
:104AF0005DF8047B704700BF80B483B000AF78607E
:104B00000B46FB707B68596997F9032013465B00DD
:104B100013440133012202FA03F341EA03027B68E2
:104B20005A6100BF0C37BD465DF8047B704700BF7B
:104B300080B483B000AF78600B46FB707B68596926
:104B400097F9032013465B0013440233012202FA53
:104B500003F3DB4301EA03027B685A6100BF0C37B1
:104B6000BD465DF8047B704780B483B000AF7860C9
:104B70000B46FB707B68996A97F9032013465B002C
:104B80001344012202FA03F341EA03027B689A62AA
:104B900000BF0C37BD465DF8047B704780B483B01E
:104BA00000AF78600B46FB707B68996A97F9032029
:104BB00013465B0013440133012202FA03F341EA76
:104BC00003027B689A6200BF0C37BD465DF8047B28
:104BD000704700BF80B483B000AF78600B46FB70B5
:104BE0007B68996A97F9032013465B0013440233EC
:104BF000012202FA03F3DB4301EA03027B689A62B3
:104C000000BF0C37BD465DF8047B704780B483B0AD
:104C100000AF78600B46FB701346BB70FA7897F9CB
:104C200002309B001A437B681A6700BF0C37BD46F1
:104C30005DF8047B704700BF80B483B000AF78603C
:104C40007B680122DA6500BF0C37BD465DF8047B46
:104C5000704700BF80B483B000AF786039607B6874
:104C60001A693B681A437B681A6100BF0C37BD465E
:104C70005DF8047B704700BF80B500AF00220021C3
:104C80000248FFF795FE00BF80BD00BF00400F4007
:104C900080B500AF002200210248FFF7A3FE00BF4D
:104CA00080BD00BF00400F4080B483B000AF03461A
:104CB000FB71FB79002B14BF01230023DBB21A46E2
:104CC000034B1A7000BF0C37BD465DF8047B70477C
:104CD0002465081080B483B000AF78600B46FB7089
:104CE0007B6803F500531B687A68F978D1547B68B8
:104CF00003F500531B680133C3F30B027B6803F514
:104D000000531A6000BF0C37BD465DF8047B704746
:104D100080B483B000AF78607B6803F500530C3338
:104D20001A687B6803F5005308331B68D31A013BEC
:104D3000C3F30B0318460C37BD465DF8047B704780
:104D400080B483B000AF78607B6803F50053043310
:104D50001A687B6803F500531B68D31A013BC3F341
:104D60000B0318460C37BD465DF8047B704700BF47
:104D700080B400AF064B5B6803F00303032B0CBF4A
:104D800001230023DBB21846BD465DF8047B704763
:104D90000030044080B483B000AF0346FB71FB7960
:104DA000002B06D0094B1B6843F00103074A136030
:104DB00005E0064B1B6823F00103044A136000BFA3
:104DC0000C37BD465DF8047B704700BF4474081083
:104DD00080B582B000AF0346FB7100E000BF07481A
:104DE000FFF7AEFF0346002BF8D0FB7919460348C6
:104DF000FFF770FF00BF0837BD4680BD0000001000
:104E000080B582B000AF78603960802200213548DB
:104E10000FF062FF344B00221A60344B02221A60FA
:104E200042F21002002132480FF056FF314B324A55
:104E30001A607B68314A934226D11820FFF744FD5F
:104E4000F12200210220FFF759FDF1220121022069
:104E5000FFF754FD0A2200212948FFF7C3FD0A226B
:104E600000212748FFF764FDF02203210120FFF70E
:104E700045FD082201212248FFF77AFD482205213D
:104E80000120FFF73BFD1EE07B681E4A93421AD1CA
:104E90001920FFF719FDF42204210320FFF72EFD4E
:104EA00049220E210120FFF729FDF42202210520CD
:104EB000FFF724FD4C2204210520FFF71FFDC02130
:104EC0001048FFF7C7FE78680EF0DCFA396878689A
:104ED0000EF028FB7868FFF7AFFE00BF0837BD462D
:104EE00080BD00BF7C880810FC88081078880810F6
:104EF0000000001000890810D14D001A0010084071
:104F000000400F400020084080B500AF0E4801F07F
:104F1000A5FC0E4801F0A2FC0D4801F09FFC0D48D5
:104F200001F09CFC0C4801F099FC0C4801F096FC47
:104F30000B4B1B680B4AA2FB03239B0C19460A4828
:104F400001F01CFE00BF80BD5888011A6488011A58
:104F50006C88011A7488011A7C88011A8488011AE5
:104F60000091081083DE1B439C88011A80B500AFB6
:104F7000FFF7CAFF0A2001F04FFC444801F06EFC25
:104F80000A2001F049FC424801F068FC414801F068
:104F900065FC414801F062FC404801F05FFC40487C
:104FA00001F05CFC3F4801F059FC3F4801F056FC21
:104FB0000A2001F031FC3D4801F050FC3C4801F072
:104FC0004DFC3C4801F04AFC3B4801F047FC0A20FC
:104FD00001F022FC394801F041FC394801F03EFC67
:104FE000384801F03BFC0A2001F016FC364801F07D
:104FF00035FC364801F032FC354801F02FFC3548CD
:1050000001F02CFC0A2001F007FC334801F026FCDB
:10501000324801F023FC0A2001F0FEFB304801F089
:105020001DFC304801F01AFC2F4801F017FC2F48F6
:1050300001F014FC2E4801F011FC2E4801F00EFC8A
:105040002D4801F00BFC2D4801F008FC0A2001F06E
:10505000E3FB2B4801F002FC2A4801F0FFFB0A2089
:1050600001F0DAFB284801F0F9FB284801F0F6FBD3
:10507000274801F0F3FB0A2001F0CEFB254801F0A0
:10508000EDFB0A2001F0C8FB00BF80BDD088011AEB
:10509000E888011A2089011A6C89011AB089011A5D
:1050A000F889011A408A011A788A011AB88A011A05
:1050B000F08A011A2C8B011A708B011AAC8B011A21
:1050C000DC8B011A0C8C011A4C8C011A948C011A7D
:1050D000E08C011A248D011A508D011A788D011A65
:1050E000AC8D011AE48D011A208E011A5C8E011A12
:1050F0009C8E011AE88E011A3C8F011A848F011AC6
:10510000C48F011A0490011A5490011A9490011A44
:10511000BC90011AE490011A80B500AF0E4801F06E
:105120009DFB0E4801F09AFB0D4801F097FB0D48DE
:1051300001F094FB0C4801F091FB0C4801F08EFB50
:105140000A2001F069FB0A4801F088FB0A2001F0FF
:1051500063FB00BF80BD00BF1891011A4091011A86
:105160008491011ACC91011A1092011A5492011AD9
:105170009892011A80B500AF274801F06FFB2748CD
:1051800001F06CFB264801F069FB264801F066FB44
:10519000254801F063FB254801F060FB244801F03D
:1051A0005DFB244801F05AFB234801F057FB2348DC
:1051B00001F054FB224801F051FB224801F04EFB64
:1051C000214801F04BFB214801F048FB204801F049
:1051D00045FB204801F042FB1F4801F03FFB1F4800
:1051E00001F03CFB1E4801F039FB1E4801F036FB84
:1051F0001D4801F033FB1D4801F030FB1C4801F055
:105200002DFB1C4801F02AFB1B4801F027FB0A205C
:1052100001F002FB00BF80BDC092011AE092011AAA
:105220001093011A5893011AA093011AE893011AD6
:105230003094011A7894011AC094011A0895011A41
:105240005495011AA495011AF095011A3496011A81
:105250007C96011ACC96011A1097011A5897011AD8
:105260009897011ADC97011A2498011A7098011A6C
:10527000C498011A0C99011A5499011A80B485B086
:1052800000AF78600023FB6012E0FA6813469B00D1
:1052900013445B00FB607B681B681B781A46FB6845
:1052A0001344303BFB607B681B685A1C7B681A60A8
:1052B0007B681B681B782F2B04D97B681B681B78C5
:1052C000392BE2D9FB6818461437BD465DF8047BDC
:1052D000704700BF80B582B000AF78607B681B6804
:1052E0001B782D2B0AD17B681B685A1C7B681A60BF
:1052F0007868FFF7C3FF03465B420DE07B681B68DD
:105300001B782B2B04D17B681B685A1C7B681A60A6
:105310007868FFF7B3FF034618460837BD4680BDDF
:105320002DE9F0438BB004AF9B4B5B783F3B352BB3
:1053300000F2298101A252F823F000BF5555001A4E
:105340008755001A8755001A1554001A8755001AF8
:105350008755001A7754001A8755001A8755001A86
:105360008755001A8755001A8755001A8755001A65
:105370008755001A8554001A8755001A8755001A58
:105380008755001A8755001A8755001AED54001AE0
:105390000555001A8755001A8755001A8755001AB7
:1053A0008755001A8755001A8755001A8755001A25
:1053B0008755001A8755001A8755001A8755001A15
:1053C0008755001A8755001A1554001A8755001A78
:1053D0008755001A7754001A8755001A8755001A06
:1053E0008755001A8755001A8755001A8755001AE5
:1053F0008755001A8554001A8755001A8755001AD8
:105400008755001A8755001A8755001AED54001A5F
:105410000555001A614BFB60FB681B78412B03D0DC
:10542000FB681B78612B13D100237B610CE07B6947
:105430001846FBF7C1F803461A467969584801F047
:105440009DFB7B6901337B617B690B2BEFDD9DE06D
:1054500007F10C031846FFF711FF03467B617B69D8
:105460001846FBF7A9F803461A4679694C4801F03B
:1054700085FB00BF8AE04B4B1B6819464A4801F088
:105480007DFB83E0454BBB60BB681B78432B03D09F
:10549000BB681B78632B22D1BB680133BB6007F16B
:1054A00008031846FFF7EAFE38613B69002B09D173
:1054B0003E4BD9693D4B1A6A3C4B5B6A3C4801F054
:1054C0005DFB10E03B69012B0DD13A4BD969394B9B
:1054D0001A6A384B5B6A384801F050FB03E03748E2
:1054E00001F0BCF900E000BF00BF4FE02B4B7B6038
:1054F0003B1D1846FFF7C2FE03461846FFF73EF96C
:1055000000BF43E007212E48FFF786FA0646062132
:105510002B48FFF781FA804603212948FFF77CFAE0
:10552000814602212648FFF777FA044601212448E4
:10553000FFF772FA054600212148FFF76DFA03468E
:105540000293019500944B46424631461D4801F0B6
:1055500015FB1BE0104B9B78652B03D00E4B9B7803
:10556000452B02D1FFF7D8FD10E00B4B9B78732B36
:1055700003D0094B9B78532B02D1FFF7FBFD05E0CD
:10558000FFF7F4FC02E00D4801F068F900BF1C379A
:10559000BD46BDE8F08300BF7C8808107E880810F7
:1055A0008C99011A1C6508109899011AA4740810A6
:1055B000A099011A68740810B099011AC099011ACB
:1055C00000600440D499011A90B59FB000AFAC4B75
:1055D0005B78413B342B00F2F68501A252F823F0B0
:1055E000B556001AF356001AC761001AC761001AAF
:1055F000DF57001AC761001AC761001AC761001A95
:10560000C761001AC761001AC761001A3F5A001A21
:10561000835A001AC761001AC761001AEB5D001AAD
:10562000C761001AC761001A075F001AC35F001A3A
:10563000B560001AC761001AC761001AC761001A75
:10564000C761001AC761001AC761001AC761001A52
:10565000C761001AC761001AC761001AC761001A42
:10566000B556001AF356001AC761001AC761001A2E
:10567000DF57001AC761001AC761001AC761001A14
:10568000C761001AC761001AC761001A3F5A001AA1
:10569000835A001AC761001AC761001AEB5D001A2D
:1056A000C761001AC761001A075F001AC35F001ABA
:1056B000B560001A734B3B643B6C1B783D2B02D1E9
:1056C0003B6C01333B6407F140031846FFF7D6FDFE
:1056D000F866FB6EB3F5806F04D36B4801F0BEF83B
:1056E00000F086BDF96E69480CF06CFF00BF00F059
:1056F0007FBD634B9B78462B03D0614B9B78662B19
:105700000FD1634B1B68002B06D1624B1B68012B2A
:1057100002D9614801F0A2F80120FBF7A1F800F0DE
:1057200067BD574B9B78442B03D0554B9B78642B1C
:1057300025D1534BDB782F2B1CD9514BDB78352BE4
:1057400018D8534B1B68002B09D1524B1B68012BF7
:1057500005D94B4BDB781946504801F00FFA484BFE
:10576000DB78303B1846FAF73DFF0120FBF778F86D
:1057700000F03EBD4A4801F071F800F039BD414BE0
:10578000FB6307F13C031846FFF778FD0346BB6651
:10579000FB6B0133FB6307F13C031846FFF76EFD1B
:1057A00003467B66BB6E7A6E11461846FAF7EEFE2C
:1057B000374B1B68002B40F00A85364B1B68012BCA
:1057C00040F20585BB6E1846FAF7F6FE03461A4608
:1057D000B96E344801F0D2F900BF00F0F8BC294B93
:1057E000BB63BB6B1B78742B04D0BB6B1B78542B37
:1057F00040F00581BB6B0133BB63BB6B1B78732B24
:1058000003D0BB6B1B78532B58D1274B03221A7044
:105810002648FFF723F90A2000F0B2FE244B03F5D7
:10582000C04304331A68224B03F5C04308331A609F
:1058300000211E48FFF722F9F32204210220FFF77E
:105840005DF81C4B00221A6100211848FFF78CF903
:1058500000211648FFF7A2F900211448FFF7BAF912
:10586000002203211148FFF7D1F910480DF02CFD5B
:105870000E48FFF7E3F8104800F0F0FF00F0B8BC66
:105880007C8808107E880810F899011A00100E40D4
:105890004474081078880810249A011A2C9A011A66
:1058A000349A011A8C99011A1865081000500840A2
:1058B0000000081000700C405C9A011ABB6B1B784A
:1058C0006D2B03D0BB6B1B784D2B66D1BB6B0133AB
:1058D000BB63BB6B1B78302B30D1994B01221A7004
:1058E00098480DF0D1FC5F219648FFF7C7F80121D9
:1058F0009448FFF701F901219248FFF719F90121B6
:105900009048FFF7DDF8012201218E48FFF7C4F827
:105910000123012200218B480DF0F4FCF622042122
:105920000220FEF7EBFF8748FFF788F88648FFF76D
:1059300085F8864800F092FF00F05ABC804B0222A6
:105940001A708048FFF78AF80123032200217D485E
:105950000DF0D8FCF62204210220FEF7CFFF7A4892
:10596000FFF77CF80A2000F00BFE794B03F5C043EB
:1059700004331A68764B03F5C04308331A60724843
:105980000DF0A2FC6F48FFF759F86F48FFF756F883
:10599000704800F063FF00F02BBCBB6B1B78692BD9
:1059A00003D0BB6B1B78492B1DD1654B1B78012B9A
:1059B00013DB022B0ADD032B00D00EE021200DF0BB
:1059C000C5FA61480DF070FCFAF7AEFD5C4B0022A1
:1059D0001A7000210020FDF777FE00BF5E4800F03E
:1059E0003DFF00F005BCBB6B0133BB63564C07F1B8
:1059F00038031846FFF742FC0346A360F8E3BB6B8D
:105A00001B782F2B1BD9BB6B1B78342B17D8BB6B88
:105A10001B78303B1A46514B1A60514B1B68002BC8
:105A200040F0D7834F4B1B68012B40F2D2834B4B86
:105A30001B6819464C4801F0A1F800BFC9E34B4B65
:105A40003B663B6E1B78302B05D10020FFF72CF90D
:105A5000FFF712F9CCE33B6E1B78312B05D1002008
:105A6000FFF722F9FFF714F9C2E33B6E1B78322BE4
:105A700003D10120FFF718F9BAE33D4800F0EEFE2C
:105A8000B6E33A4B7B630023FB657B6B1B782B2BC8
:105A900003D10120FCF772FBAAE37B6B1B782D2B53
:105AA00003D10020FCF76AFBA2E37B6B1B78442B3D
:105AB00003D07B6B1B78642B60D17B6B01337B63E2
:105AC0002C4B1A687B6B1B78013313441B7803F053
:105AD0000403002B00F0398307F134031846FFF765
