:020000041A00E0
:1000000000A008108D11001AC901001ACB01001AB6
:10001000CD01001ACF01001AD101001A0000000022
:10002000000000000000000000000000D301001AE2
:10003000D501001A00000000D701001A2D47001A50
:10004000DB01001ADB01001ADB01001A00000000CE
:10005000DB01001ADB01001ADB01001ADB01001AC8
:10006000DB01001ADB01001ADB01001ADB01001AB8
:10007000DB01001ADB01001ADB01001ADB01001AA8
:10008000DB01001ADB01001ADB01001ADB01001A98
:10009000DB01001ADB01001ADB01001ADB01001A88
:1000A000DB01001ADB01001ADB01001ADB01001A78
:1000B000DB01001ADB01001ADB01001ADB01001A68
:1000C000DB01001ADB01001ADB01001ADB01001A58
:1000D000DB01001ADB01001ADB01001ADB01001A48
:1000E000DB01001ADB01001ADB01001ADB01001A38
:1000F00000000000DB01001ADB01001ADB01001A1E
:1001000000000000DB01001ADB01001ADB01001A0D
:10011000DB01001A98B2011A18600810CC04000024
:1001200094B2011A008000200000000094B2011A6D
:10013000142000100000000094B2011A0000081002
:100140000000000094B2011A00000010000000003E
:1001500094B2011A106008100400000098B2011A4D
:10016000000000200000000098B2011A0084002066
:100170000000000098B2011A00C00020000000003A
:10018000E8640810141C000000800020000000003B
:100190001420001000000000000008100000000003
:1001A00000000010000000001460081000000000B3
:1001B000000000200000000000840020000000007B
:1001C00000C0002000000000FEE7FEE7FEE7FEE7BB
:1001D000FEE7FEE7FEE7FEE7FEE7FEE710B50B46AB
:1001E000401A5C1AA24203D9C45843F8044BF8E7FA
:1001F00010BD10B5034600241A1A914202D943F8E3
:10020000044BF9E710BDFFFFFFFFFFFFFFFFFFFFFC
:10021000FFFFFFFFFFFFFFFFFFFFFFFFFFFFFFFFEE
:10022000FFFFFFFFFFFFFFFFFFFFFFFFFFFFFFFFDE
:10023000FFFFFFFFFFFFFFFFFFFFFFFFFFFFFFFFCE
:10024000FFFFFFFFFFFFFFFFFFFFFFFFFFFFFFFFBE
:10025000FFFFFFFFFFFFFFFFFFFFFFFFFFFFFFFFAE
:10026000FFFFFFFFFFFFFFFFFFFFFFFFFFFFFFFF9E
:10027000FFFFFFFFFFFFFFFFFFFFFFFFFFFFFFFF8E
:10028000FFFFFFFFFFFFFFFFFFFFFFFFFFFFFFFF7E
:10029000FFFFFFFFFFFFFFFFFFFFFFFFFFFFFFFF6E
:1002A000FFFFFFFFFFFFFFFFFFFFFFFFFFFFFFFF5E
:1002B000FFFFFFFFFFFFFFFFFFFFFFFFFFFFFFFF4E
:1002C000FFFFFFFFFFFFFFFFFFFFFFFFFFFFFFFF3E
:1002D000FFFFFFFFFFFFFFFFFFFFFFFFFFFFFFFF2E
:1002E000FFFFFFFFFFFFFFFFFFFFFFFFFFFFFFFF1E
:1002F000FFFFFFFFFFFFFFFFFFFFFFFFFFFFFFFF0E
:1003000080B483B000AF0346FB710B46BB7113464C
:10031000BB800748F979BB79BA8849010B4440F89A
:10032000232000BF0C37BD465DF8047B704700BF3B
:100330000060084080B483B000AF78600B46FB706B
:100340001346BB70FA78F9787B6801F5006153F8C1
:100350002110BB78012000FA03F319437B6802F5F2
:10036000006243F8221000BF0C37BD465DF8047BE5
:10037000704700BF80B483B000AF78600B46FB705D
:100380001346BB70FA78BB78012101FA03F31946D2
:100390007B6802F5086243F8221000BF0C37BD46A7
:1003A0005DF8047B704700BF80B483B000AF786015
:1003B0000B46FB701346BB70FA78BB78012101FA3B
:1003C00003F319467B6802F50A6243F8221000BF66
:1003D0000C37BD465DF8047B704700BF80B483B026
:1003E00000AF78607B685B6843F001027B685A600D
:1003F00000BF0C37BD465DF8047B704780B483B006
:1004000000AF786039607B683A68DA6000BF0C370B
:10041000BD465DF8047B704780B483B000AF786060
:100420000B46FB707B68596997F9032013465B0004
:100430001344012202FA03F3DB4301EA03027B685F
:100440005A6100BF0C37BD465DF8047B704700BFA2
:1004500080B483B000AF78600B46FB707B6859694D
:1004600097F9032013465B0013440133012202FA7B
:1004700003F3DB4301EA03027B685A6100BF0C37D8
:10048000BD465DF8047B704780B483B000AF7860F0
:100490000B46FB707B68596997F9032013465B0094
:1004A00013440233012202FA03F3DB4301EA03029D
:1004B0007B685A6100BF0C37BD465DF8047B70470E
:1004C00080B483B000AF78600B46FB707B68996A9C
:1004D00097F9032013465B001344012202FA03F349
:1004E000DB4301EA03027B689A6200BF0C37BD461A
:1004F0005DF8047B704700BF80B483B000AF7860C4
:100500000B46FB707B68996A97F9032013465B00E2
:1005100013440133012202FA03F341EA03027B6828
:100520009A6200BF0C37BD465DF8047B704700BF80
:1005300080B483B000AF78600B46FB707B68996A2B
:1005400097F9032013465B0013440233012202FA99
:1005500003F3DB4301EA03027B689A6200BF0C37B6
:10056000BD465DF8047B704780B500AF154812F0BA
:100570000FFFBF211348FFF741FF01211148FFF78B
:100580004BFF01210F48FFF763FF01210D48FFF7E3
:100590007BFF01210B48FFF793FF01210948FFF77B
:1005A000ABFF01210748FFF7C3FF4D2201210520C2
:1005B000FFF7A6FE044B20225A610248FFF70EFF08
:1005C00000BF80BD0050084000700C4080B500AFF7
:1005D00046F210020021664814F002FCFFF7C4FF47
:1005E000644B00221A60644B00221A600022022130
:1005F0006248FFF7D9FE002202216048FFF79AFE09
:10060000F02200210420FFF77BFE0B2201215B4832
:10061000FFF790FE0B2201215848FFF7ABFEF022B6
:100620000B210220FFF76CFE0E2200215348FFF73A
:1006300081FE0E2200215148FFF7B6FEF0220A216A
:100640000220FFF75DFE482207210720FFF758FE32
:10065000F0220C210220FFF753FE0C220121474813
:10066000FFF788FE0C2201214448FFF763FEF422C5
:1006700007210320FFF744FEF02205210320FFF7A6
:100680003FFE0A2205213D48FFF78EFE0F22012181
:100690003A48FFF789FE0A2205213848FFF74AFE4B
:1006A0000F2201213548FFF745FE0B220121334877
:1006B000FFF77AFE0A2006F023F80B2201212F48CB
:1006C000FFF758FE012006F01BF848220121062002
:1006D000FFF716FE482202210620FFF711FE4822EE
:1006E00003210620FFF70CFE482204210620FFF715
:1006F00007FE482205210620FFF702FE48220921B5
:100700000620FFF7FDFD48220A210620FFF7F8FD2D
:1007100048220B210620FFF7F3FD48220021072085
:10072000FFF7EEFD482201210720FFF7E9FD4822EF
:1007300002210720FFF7E4FD482203210720FFF7ED
:10074000DFFD482204210720FFF7DAFD48220521BA
:100750000720FFF7D5FD482206210720FFF7D0FD2F
:10076000052000F039F8012000F074F900BF80BDC9
:10077000000008103C7408101C65081000400F4071
:1007800080B483B000AF786039607B680B2B04D8ED
:1007900005497B683A6841F8232000BF0C37BD4605
:1007A0005DF8047B704700BFE864081080B483B034
:1007B00000AF78607B680B2B04D8064A7B6852F840
:1007C000233000E0002318460C37BD465DF8047B5B
:1007D000704700BFE864081080B483B000AF786051
:1007E0007B68052B00F20D8101A252F823F000BFB7
:1007F0000908001A5D08001AB108001A0709001A52
:100800005909001AAF09001A814B40F22B421A60B5
:100810007F4B43F21C025A607D4B6FF07F429A601F
:100820007B4B7C4ADA607A4B97221A61784B7A4A82
:100830005A61774B00229A61754B6FF07F42DA6103
:10084000734B764A1A62724B40F628625A62704BBA
:1008500027229A626E4B0422DA62D2E06C4B40F29D
:100860002B421A606A4B43F21C025A60684B6FF0CD
:100870007F429A60664B6A4ADA60654B3C221A6195
:10088000634B654A5A61624B00229A61604B6FF07C
:100890007F42DA615E4B634A1A625D4B41F6AF22DA
:1008A0005A625B4B27229A62594B0422DA62A8E013
:1008B000574B40F2AE721A60554B5B4A5A60544B2C
:1008C0006FF07F429A60524B584ADA60504B852253
:1008D0001A614F4B564A5A614D4B4FF46C729A61F4
:1008E0004B4B6FF07F42DA61494B524A1A62484BD8
:1008F00040F687425A62464B4FF48B729A62444BE1
:10090000D922DA627DE0424B40F2AE721A60404B6F
:10091000494A5A603E4B494A9A603D4B484ADA6020
:100920003B4B85221A613A4B464A5A61384B40F29A
:10093000A7329A61364B414ADA61354B424A1A6214
:10094000334B40F687425A62314B40F20B129A62A7
:100950002F4BD922DA6254E02D4B40F2AE721A606E
:100960002B4B314A5A602A4B6FF07F429A60284BDA
:10097000364ADA60264B3E221A61254B2C4A5A61D0
:10098000234B4FF46C729A61214B6FF07F42DA6116
:100990001F4B2F4A1A621E4B40F687425A621C4B6D
:1009A0004FF48B729A621A4BD922DA6229E0184B03
:1009B00040F22B421A60164B43F21C025A60144B51
:1009C0006FF07F429A60124B154ADA60104B3C225E
:1009D0001A610F4B104A5A610D4B00229A610C4B61
:1009E0006FF07F42DA610A4B0E4A1A62084B44F6F6
:1009F000F3225A62064B27229A62054B0422DA62DE
:100A000000BF00BF0C37BD465DF8047B704700BFD8
:100A1000E8640810D42355004A8606003D8504008A
:100A2000D32355005FA80800035C1100D1E27A00CF
:100A3000C8730200C7210300B054110060E2FF0038
:100A4000C6037B00BF730200BC210300D2E27A0020
:100A5000DC56070080B584B000AF78600023FB60EF
:100A60001AE3BE4AFB6852F82330BB60BB687A6861
:100A700002FB03F3BB60BB68B3F1807F02D36FF06E
:100A80007F43BB60BB6803F40003002B05D00A2240
:100A90000521B348FFF76EFC04E00A220521B048A7
:100AA000FFF782FC0F220121AD48FFF763FC012014
:100AB00005F0EAFD0F220121A948FFF775FC01208E
:100AC00005F0E2FDBB6803F48003002B05D00A2289
:100AD0000521A348FFF74EFC04E00A220521A048A7
:100AE000FFF762FC0F2201219D48FFF743FC012024
:100AF00005F0CAFD0F2201219948FFF755FC01209E
:100B000005F0C2FDBB6803F40013002B05D00A22D8
:100B100005219348FFF72EFC04E00A2205219048A6
:100B2000FFF742FC0F2201218D48FFF723FC012033
:100B300005F0AAFD0F2201218948FFF735FC0120AD
:100B400005F0A2FDBB6803F48013002B05D00A2238
:100B500005218348FFF70EFC04E00A2205218048A6
:100B6000FFF722FC0F2201217D48FFF703FC012043
:100B700005F08AFD0F2201217948FFF715FC0120BD
:100B800005F082FDBB6803F40023002B05D00A2288
:100B900005217348FFF7EEFB04E00A2205217048A7
:100BA000FFF702FC0F2201216D48FFF7E3FB012054
:100BB00005F06AFD0F2201216948FFF7F5FB0120CE
:100BC00005F062FDBB6803F48023002B05D00A22E8
:100BD00005216348FFF7CEFB04E00A2205216048A7
:100BE000FFF7E2FB0F2201215D48FFF7C3FB012065
:100BF00005F04AFD0F2201215948FFF7D5FB0120DE
:100C000005F042FDBB6803F40033002B05D00A2237
:100C100005215348FFF7AEFB04E00A2205215048A6
:100C2000FFF7C2FB0F2201214D48FFF7A3FB012074
:100C300005F02AFD0F2201214948FFF7B5FB0120ED
:100C400005F022FDBB6803F48033002B05D00A2297
:100C500005214348FFF78EFB04E00A2205214048A6
:100C6000FFF7A2FB0F2201213D48FFF783FB012084
:100C700005F00AFD0F2201213948FFF795FB0120FD
:100C800005F002FDBB6803F40043002B05D00A22E7
:100C900005213348FFF76EFB04E00A2205213048A6
:100CA000FFF782FB0F2201212D48FFF763FB012094
:100CB00005F0EAFC0F2201212948FFF775FB01200E
:100CC00005F0E2FCBB6803F48043002B05D00A2248
:100CD00005212348FFF74EFB04E00A2205212048A6
:100CE000FFF762FB0F2201211D48FFF743FB0120A4
:100CF00005F0CAFC0F2201211948FFF755FB01201E
:100D000005F0C2FCBB6803F40053002B05D00A2297
:100D100005211348FFF72EFB04E00A2205211048A5
:100D2000FFF742FB0F2201210D48FFF723FB0120B3
:100D300005F0AAFC0F2201210948FFF735FB01202D
:100D400005F0A2FCBB6803F48053002B0AD00A22F2
:100D500005210348FFF70EFB09E000BFE864081017
:100D600000400F400A220521BE48FFF71DFB0F225D
:100D70000121BC48FFF7FEFA012005F085FC0F2297
:100D80000121B848FFF710FB012005F07DFCBB688E
:100D900003F40063002B05D00A220521B148FFF7B8
:100DA000E9FA04E00A220521AE48FFF7FDFA0F2216
:100DB0000121AC48FFF7DEFA012005F065FC0F22A7
:100DC0000121A848FFF7F0FA012005F05DFCBB689F
:100DD00003F48063002B05D00A220521A148FFF708
:100DE000C9FA04E00A2205219E48FFF7DDFA0F2226
:100DF00001219C48FFF7BEFA012005F045FC0F22B7
:100E000001219848FFF7D0FA012005F03DFCBB68AE
:100E100003F40073002B05D00A2205219148FFF747
:100E2000A9FA04E00A2205218E48FFF7BDFA0F2235
:100E300001218C48FFF79EFA012005F025FC0F22C6
:100E400001218848FFF7B0FA012005F01DFCBB68BE
:100E500003F48073002B05D00A2205218148FFF797
:100E600089FA04E00A2205217E48FFF79DFA0F2245
:100E700001217C48FFF77EFA012005F005FC0F22D6
:100E800001217848FFF790FA012005F0FDFBBB68CF
:100E900003F08003002B05D00A2205217148FFF7DB
:100EA00069FA04E00A2205216E48FFF77DFA0F2255
:100EB00001216C48FFF75EFA012005F0E5FB0F22E7
:100EC00001216848FFF770FA012005F0DDFBBB68DF
:100ED00003F04003002B05D00A2205216148FFF7EB
:100EE00049FA04E00A2205215E48FFF75DFA0F2265
:100EF00001215C48FFF73EFA012005F0C5FB0F22F7
:100F000001215848FFF750FA012005F0BDFBBB68EE
:100F100003F02003002B05D00A2205215148FFF7DA
:100F200029FA04E00A2205214E48FFF73DFA0F2274
:100F300001214C48FFF71EFA012005F0A5FB0F2206
:100F400001214848FFF730FA012005F09DFBBB68FE
:100F500003F01003002B05D00A2205214148FFF7BA
:100F600009FA04E00A2205213E48FFF71DFA0F2284
:100F700001213C48FFF7FEF9012005F085FB0F2217
:100F800001213848FFF710FA012005F07DFBBB680E
:100F900003F00803002B05D00A2205213148FFF792
:100FA000E9F904E00A2205212E48FFF7FDF90F2296
:100FB00001212C48FFF7DEF9012005F065FB0F2227
:100FC00001212848FFF7F0F9012005F05DFBBB681F
:100FD00003F00403002B05D00A2205212148FFF766
:100FE000C9F904E00A2205211E48FFF7DDF90F22A6
:100FF00001211C48FFF7BEF9012005F045FB0F2237
:1010000001211848FFF7D0F9012005F03DFBBB682E
:1010100003F00203002B05D00A2205211148FFF737
:10102000A9F904E00A2205210E48FFF7BDF90F22B5
:1010300001210C48FFF79EF9012005F025FB0F2246
:1010400001210848FFF7B0F9012005F01DFBBB683E
:1010500003F00103002B07D00A2205210148FFF706
:1010600089F906E000400F400A2205211648FFF7E3
:101070009BF90F2201211448FFF77CF9012005F0AC
:1010800003FB0F2201211048FFF78EF9012005F024
:10109000FBFAFB680133FB60FB680B2B7FF6E1ACCE
:1010A0000A2205210848FFF77FF90C220121064892
:1010B000FFF77AF90C2201210348FFF75BF900BF23
:1010C0001037BD4680BD00BF00400F4080B483B0E4
:1010D00000AF0D4B1B687B600AE07B68DB4323F0AD
:1010E00080733B60094A3B681360074B1B687B6059
:1010F0007B6803F08073002BEFD000BF0C37BD4638
:101100005DF8047B704700BF543105400431054051
:1011100080B483B000AF0D4B1B687B600AE07B6836
:10112000DB4343F080733B60094A3B681360074B25
:101130001B687B607B6803F08073002BEFD100BFDE
:101140000C37BD465DF8047B704700BF5431054045
:101150000431054080B582B000AF7860FFF7D8FF5A
:10116000084A7B681360084B00221A60FFF7AEFF45
:1011700000BF054B1B68002BFBD000BF0837BD46E6
:1011800080BD00BF043404401060081038B572B64A
:10119000154B164A1A60164A5A60164A4FF0FF332A
:1011A000136053609360D360136153619361D361A3
:1011B00062B6114C114DAC4207D294E803000C34D6
:1011C00054F8042CFFF70AF8F5E70D4DAC4206D2AF
:1011D00054F8080B54F8041CFFF70BF8F6E703F07B
:1011E000D9FB00F09DF9FEE7003105400010DF104B
:1011F000FFF7DF0180E200E01401001A8001001A0D
:10120000C801001A80B483B000AF0346FB710B46DF
:10121000BB711346BB800748F979BB79BA8849018D
:101220000B4440F8232000BF0C37BD465DF8047B1B
:10123000704700BF0060084080B483B000AF7860A2
:101240000B46FB701346BB70FA78F9787B6801F5A2
:10125000006153F82110BB78012000FA03F3194311
:101260007B6802F5006243F8221000BF0C37BD46D0
:101270005DF8047B704700BF80B483B000AF786036
:101280000B46FB701346BB70FA78BB78012101FA5C
:1012900003F319467B6802F5086243F8221000BF89
:1012A0000C37BD465DF8047B704700BF80B483B047
:1012B00000AF78600B46FB701346BB70FA78BB78C2
:1012C000012101FA03F319467B6802F50A6243F82B
:1012D000221000BF0C37BD465DF8047B704700BF8D
:1012E00080B500AF214B00221A60214B00221A70FA
:1012F0000C2200211F48FFF79FFF0C2200211D48F0
:10130000FFF7D4FFF02211210120FFF77BFF02221B
:1013100000211848FFF7B0FF022200211548FFF70F
:101320008BFFF0220F210120FFF76CFF002200212C
:101330001048FFF7BBFF002200210E48FFF77CFF9B
:10134000F02200210020FFF75DFF01220021094863
:10135000FFF792FF012200210648FFF76DFFF02200
:1013600001210020FFF74EFF00BF80BD206508105F
:101370002465081000400F4080B483B000AF78604F
:101380000B46FB701346BB70FA78BB78012101FA5B
:1013900003F319467B6802F5086243F8221000BF88
:1013A0000C37BD465DF8047B704700BF80B483B046
:1013B00000AF78600B46FB701346BB70FA78BB78C1
:1013C000012101FA03F319467B6802F50A6243F82A
:1013D000221000BF0C37BD465DF8047B704700BF8C
:1013E00080B483B000AF78600B46FB701346BB70CF
:1013F000FA78BB78012101FA03F319467B6802F5FC
:101400000C6243F8221000BF0C37BD465DF8047B28
:10141000704700BF80B483B000AF78607B6803F58D
:1014200000530C331A687B6803F5005308331B68BC
:101430009A4214BF01230023DBB218460C37BD4685
:101440005DF8047B704700BF80B485B000AF786062
:101450007B6803F500530C331B687A68134403F56B
:1014600080531B78DBB2FB737B6803F500530C33AE
:101470001B680133C3F30B027B6803F500530C3385
:101480001A60FB7BDBB218461437BD465DF8047B5F
:10149000704700BF80B500AF002200210248FFF76F
:1014A00085FF00BF80BD00BF00400F4080B500AF8A
:1014B000002200210248FFF793FF00BF80BD00BF5C
:1014C00000400F4080B500AF012200210248FFF725
:1014D00053FF00BF80BD00BF00400F4080B500AF8C
:1014E000012200210248FFF761FF00BF80BD00BF5D
:1014F00000400F4080B483B000AF0346FB71FB791E
:10150000002B14BF01230023DBB21A46034B1A70D1
:1015100000BF0C37BD465DF8047B7047246508109A
:10152000B0B58AB000AFFFF7DBFE05F079F9A94846
:1015300011F0CAFDA84B1B78A3F1300213469B00A3
:1015400013445B001A46A54B1B78303B13447B6069
:101550003223A3F1300213469B0013445B001A466A
:101560003923303B1344BB603123A3F130021346CF
:101570009B0013445B001A463723303B1344FB6047
:101580002023A3F1300213469B0013445B001A464C
:101590003423303B13443B6100237B610123BB6157
:1015A0004A234F2B05D04A234E2B02D04A23442BEB
:1015B00001D1012200E0002213469B0013445B008E
:1015C0001A464A234A2B05D17523612B02D16C237D
:1015D0006E2B56D04A23462B51D04A234D2B05D192
:1015E0007523612B02D16C23722B46D04A23412BE9
:1015F00002D17523702B3ED04A234D2B05D1752384
:10160000612B02D16C23792B33D04A234A2B05D18D
:101610007523752B02D16C236E2B28D04A234A2BBD
:1016200005D17523752B02D16C236C2B1DD04A2359
:10163000412B02D17523752B15D04A23532B10D083
:101640004A234F2B0BD04A234E2B06D04A23442B40
:1016500001D1022316E00F2314E0012312E000233E
:1016600010E009230EE008230CE007230AE006231C
:1016700008E0052306E0042304E0032302E002233C
:1016800000E001231344FB613223303B4FF47A72B4
:1016900002FB03F23023303B642101FB03F3D1183A
:1016A0003123A3F1300213469B0013445B00CA1898
:1016B0003623303B13443B62494B1D463C1D0FCC47
:1016C0000FC594E80F0085E80F0002F0B1FDFEF7AA
:1016D0007DFF03F049F94349434803F015FC00F04E
:1016E0005DFE01F017FF642005F00AF801F0D2FA60
:1016F00001F04CFDFFF7F2FE3C48FFF72BFDFFF732
:10170000E1FEFFF7C7FE0120FFF7F4FE03F080FCC7
:10171000374B1B78002B10D0364B1B68002B0CD09E
:10172000FFF7C4FE334B00221A6006E03248FFF791
:101730008BFE0346184604F00DFF2F48FFF76AFEA4
:101740000346002BF2D101F01DFA01F06FFC2B4B88
:1017500093F83830DBB2002B06D0284B002283F8F8
:101760003820002000F0A8FA254B93F83830DBB27F
:10177000002B06D0224B002283F83820012000F0F5
:101780009BFA204B1B78DBB2002BC1D01D4B0022F3
:101790001A7000237B6216E01B4A7B6A52F82330E2
:1017A0005B78DBB2002B0BD0174A7B6A52F82330F0
:1017B0001B699847144A7B6A52F8233000225A70FA
:1017C0007B6A01337B627A6A104B1B689A42E3D3CF
:1017D0009EE700BF00000C40AE88011AAF88011AD6
:1017E0004074081000093D00001008400000041A71
:1017F0002465081020650810000000109C74081073
:101800006074081068750810EC7708106C78081080
:1018100080B483B000AF0346FB710B46BB71134627
:10182000BB800748F979BB79BA8849010B4440F875
:10183000232000BF0C37BD465DF8047B704700BF16
:101840000060084080B483B000AF78600B46FB7046
:101850001346BB70FA78F9787B6801F5006153F89C
:101860002110BB78012000FA03F319437B6802F5CD
:10187000006243F8221000BF0C37BD465DF8047BC0
:10188000704700BF80B483B000AF78600B46FB7038
:101890001346BB70FA78F9787B6801F5006153F85C
:1018A0002110BB78012000FA03F3DB4319407B6869
:1018B00002F5006243F8221000BF0C37BD465DF808
:1018C000047B704780B483B000AF78600B46FB7038
:1018D0001346BB70FA78BB78012101FA03F319466D
:1018E0007B6802F5086243F8221000BF0C37BD4642
:1018F0005DF8047B704700BF80B483B000AF7860B0
:101900000B46FB701346BB70FA78BB78012101FAD5
:1019100003F319467B6802F50A6243F8221000BF00
:101920000C37BD465DF8047B704700BFF0B585B04D
:1019300000AF786039603B68002B01D1012358E08B
:101940003B681D464FF00006212010F04DFE034677
:101950004FF0000403FB06F105FB04F20A44A5FB6B
:10196000030153181946254A4FF0000312F024FFD3
:1019700003460C46C7E90234D7E902344FF00001B0
:101980004FF0FF3203EA010304EA0204234301D0CB
:1019900001232EE07B68002B12D1194ABB68D36269
:1019A000184BDB694FEAE3741A462346D7E9020174
:1019B00012F002FF03460C461A46124B1A6317E058
:1019C0007B68012B12D10E4ABB6893620E4BDB6918
:1019D0004FEAE3741A462346D7E9020112F0ECFEFF
:1019E00003460C461A46084B1A6301E0012300E047
:1019F000002318461437BD46F0BD00BF40420F001B
:101A000000000A409C7408106074081080B483B011
:101A100000AF786039607B68002B03D1094A3B68CE
:101A2000D36008E07B68012B03D1074A3B68D36091
:101A300001E0012300E0002318460C37BD465DF8A5
:101A4000047B70479C7408106074081080B483B0E5
:101A500000AF78607B68002B09D10F4B1B686422B4
:101A600002FB03F30D4AD26A93FBF2F30DE07B68AD
:101A7000012B09D10A4B1B68642202FB03F3074ABE
:101A8000926A93FBF2F300E0002318460C37BD4640
:101A90005DF8047B704700BF9C74081000000A408A
:101AA000607408102DE9F04F89B000AFF860F86855
:101AB00000283BD13E4B1B681D464FEAE5762B467E
:101AC000344660027860786840EAD35078605B0200
:101AD0003B60D7E90034620142EAD3625901C91A76
:101AE00062EB0402491942EB06024FEA821949EA05
:101AF00091694FEA8118B8EB010869EB020918EB0C
:101B0000050349EB060425461C46212010F06CFD18
:101B100003461A464FF000032046294612F0FCFD0A
:101B200003460C46C7E90634BB693CE0FA68012A63
:101B300037D1204A126890464FEAE87941464A4632
:101B40004FEA422B4BEAD15B4FEA412A51465A46B3
:101B5000540144EAD1644B015B1A64EB020413EBB9
:101B6000080344EB0904A60146EA93669D01ED1AB9
:101B700066EB040615EB080346EB090425461C46F4
:101B8000212010F031FD03461A464FF00003204695
:101B9000294612F0C1FD03460C46C7E904343B69EF
:101BA00001E04FF0FF3318462437BD46BDE8F08F03
:101BB0009C7408106074081080B485B000AFF860A1
:101BC000B9607A603B60FB68002B09D10F4ABB68A3
:101BD000D3610E4A7B6813620C4A3B6853620EE085
:101BE000FB68012B09D10A4ABB68D361084A7B68AC
:101BF0001362074A3B68536201E0012300E00023BF
:101C000018461437BD465DF8047B70479C74081075
:101C10006074081080B483B000AF786039603B68AE
:101C2000642B02DD64233B6006E03B6813F1640F24
:101C300002DA6FF063033B607B68002B13D11A4B11
:101C400000225A63184A3B685361174BDB6803F064
:101C50000103002B03D0154B1B68134A9361124BF1
:101C60000222DA6018E07B68012B13D1104B0022AE
:101C70005A630F4A3B6853610D4BDB6803F0010365
:101C8000002B03D00B4B1B68094A9361084B0222BF
:101C9000DA6001E0012300E0002318460C37BD465E
:101CA0005DF8047B704700BF9C740810D87408105E
:101CB00060740810E474081080B586B000AF7860D6
:101CC0007B68002B6FD1754B5B8A002B0BD1734B5C
:101CD0001A8A724B5A82714B9A69704B5B69134432
:101CE0006E4A936105E06D4B5B8A013B9AB26B4B88
:101CF0005A826A4B9A696A4B1B68D31AFB60674B1E
:101D00001A6BFB689A4207DA654B1A68634B1B6BC8
:101D10001344624A93610CE0604B1B6B5A42FB68B0
:101D20009A4206DD5E4B1A685C4B1B6BD31A5B4A0A
:101D300093615A4BDA6AFB681344584AD362574B93
:101D4000DA6A564B5B6B9A4204DD544B5B6B534A29
:101D5000D3620AE0514B1B6B5A42FB689A4204DD86
:101D60004E4B5B6B5B424D4AD3624C4AFB689362BD
:101D70004A4BDB69FA6802FB03F2484B5B6A47494E
:101D8000896AF868411A01FB03F31A44434B1B6A42
:101D90004249C96A01FB03F31344BB60B9680020E0
:101DA00000F006FA74E07B68012B6FD13D4B5B8A33
:101DB000002B0BD13B4B1A8A3A4B5A82394B9A690A
:101DC000384B5B691344374A936105E0354B5B8AB6
:101DD000013B9AB2334B5A82324B9A69324B1B68A1
:101DE000D31A7B612F4B1A6B7B699A4207DA2E4B11
:101DF0001A682C4B1B6B13442A4A93610CE0294B45
:101E00001B6B5A427B699A4206DD274B1A68254BA9
:101E10001B6BD31A234A9361224BDA6A7B69134402
:101E2000204AD3621F4BDA6A1E4B5B6B9A4204DD79
:101E30001C4B5B6B1B4AD3620AE01A4B1B6B5A426A
:101E40007B699A4204DD174B5B6B5B42154AD36298
:101E5000144A7B699362134BDB697A6902FB03F2D4
:101E6000104B5B6A0F49896A7869411A01FB03F3D9
:101E70001A440C4B1B6A0B49C96A01FB03F3134458
:101E80003B613969012000F093F901E0012300E092
:101E9000002318461837BD4680BD00BF9C7408104B
:101EA000D874081060740810E474081080B582B00B
:101EB00000AF7860396039687868FFF7ABFE034699
:101EC000002B01D0012314E07B68002B03D10B4BC6
:101ED0000A229A6008E07B68012B03D1084B0A2292
:101EE0009A6001E0012304E006217868FFF78EFD87
:101EF000034618460837BD4680BD00BF9C740810D5
:101F00006074081080B584B000AF786039603B68B9
:101F1000642B02DD64233B6006E03B6813F1640F31
:101F200002DA6FF063033B607B68002B12D1174B22
:101F3000DB6AFB603B68FA6802FB03F3144A82FB2E
:101F400003125211DB17D31A1946002000F05EF875
:101F5000034616E07B68012B12D10C4B9B6ABB60D9
:101F60003B68BA6802FB03F3094A82FB0312521171
:101F7000DB17D31A1946012000F048F8034600E0A9
:101F8000012318461037BD4680BD00BF00000A403F
:101F90001F85EB51F0B585B000AF786039603B68C4
:101FA0001D464FEAE576212010F01EFB03464FF058
:101FB000000403FB06F105FB04F20A44A5FB030140
:101FC00053181946104A4FF0000312F0F5FB034670
:101FD0000C46C7E90234D7E902344FF000014FF054
:101FE000FF3203EA010304EA0204234301D0012380
:101FF00005E0BB681946786800F008F80346184603
:102000001437BD46F0BD00BF40420F0080B584B01C
:1020100000AF786039600023FB607B68002B03D140
:102020001E4BDB6AFB6002E01C4B9B6AFB603A685C
:10203000FB689A4202DDFB683B6007E0FB685A429E
:102040003B689A4202DDFB685B423B607B68002B89
:1020500006D1134B0A229A60114A3B6853600BE089
:102060007B68012B06D10F4B0A229A600D4A3B6810
:10207000536001E001230DE03968786800F098F8BA
:102080000346002B01D0012304E005217868FFF707
:10209000BDFC034618461037BD4680BD00000A400F
:1020A0009C7408106074081080B584B000AF78602C
:1020B00039603B68642B02DD64233B6006E03B68CB
:1020C00013F1640F02DA6FF063033B607B68002B4F
:1020D00012D1174BDB6AFB603B68FA6802FB03F323
:1020E000144A82FB03125211DB17D31A194678687F
:1020F00000F05EF8034616E07B68012B12D10C4B12
:102100009B6ABB603B68BA6802FB03F3094A82FB27
:1021100003125211DB17D31A1946786800F048F8F9
:10212000034600E0012318461037BD4680BD00BFBE
:1021300000000A401F85EB51F0B585B000AF786014
:1021400039603B681D464FEAE576212010F04CFAD5
:1021500003464FF0000403FB06F105FB04F20A44BA
:10216000A5FB030153181946104A4FF0000312F063
:1021700023FB03460C46C7E90234D7E902344FF08B
:1021800000014FF0FF3203EA010304EA0204234393
:1021900001D0012305E0BB681946786800F008F813
:1021A000034618461437BD46F0BD00BF40420F003D
:1021B00080B584B000AF786039607B68002B5BD15C
:1021C000604BDB6ABB603A68BB689A4202DDBB6861
:1021D0003B6007E0BB685A423B689A4202DDBB683D
:1021E0005B423B60584A3B6813603B68002B14D14C
:1021F000F02207210520FFF70BFBF022002105202C
:10220000FFF706FB072202215048FFF75BFB09227C
:1022100002214E48FFF756FB8FE03B68002B15DD8F
:10222000072202214948FFF74DFB4649454BDA6A30
:102230003B68D31A8B63F02207210520FFF7E8FAE9
:10224000F12200210520FFF7E3FA76E03B685B42CC
:102250003B60092202213D48FFF734FB394A3B68C5
:102260009363F12207210520FFF7D2FAF022002123
:102270000520FFF7CDFA60E07B68012B5BD1314B85
:102280009B6AFB603A68FB689A4202DDFB683B6030
:1022900007E0FB685A423B689A4202DDFB685B42FA
:1022A0003B602B4A3B6813603B68002B14D1F02243
:1022B00005210520FFF7ACFAF02206210520FFF7E3
:1022C000A7FA0E2202212148FFF7FCFA0F22022171
:1022D0001E48FFF7F7FA30E03B68002B15DD0E22B1
:1022E00002211A48FFF7EEFA1649164B9A6A3B6824
:1022F000D31A4B63F02205210520FFF789FAF1225A
:1023000006210520FFF784FA17E03B685B423B603B
:102310000F2202210D48FFF7D5FA0A4A3B685363A2
:10232000F12205210520FFF773FAF022062105208E
:10233000FFF76EFA01E0012300E000231846103792
:10234000BD4680BD00000A409C74081000400F404C
:102350006074081080B582B000AF0346FB71FB7952
:102360000C4A1360FB79002B08D00A4B01221A603B
:10237000052200210848FFF7A5FA07E0054B0022D7
:102380001A60052200210448FFF7B6FA00BF08379B
:10239000BD4680BD2865081000400F4080B500AFE5
:1023A000212010F0ABF86C4B07225A676A4B40F2C1
:1023B00077721A67684B40F277729A65664B674A84
:1023C0009A60654B664A9A60634B664A9A60624BB4
:1023D000654A9A60604B00221A625F4B0022DA6104
:1023E0005D4B4FF41652DA625B4B4FF416529A6211
:1023F000594B4FF416529A63574B4FF416525A6387
:10240000072202215948FFF75DFA0E2202215748A0
:10241000FFF758FA092202215448FFF753FA0F2216
:1024200002215248FFF74EFA072202214F48FFF7D8
:1024300009FA0E2202214D48FFF704FA092202216F
:102440004A48FFF7FFF90F2202214848FFF7FAF93F
:10245000F02207210520FFF7DBF9F02205210520F6
:10246000FFF7D6F9F02200210520FFF7D1F9F0227D
:1024700006210520FFF7CCF93D4B00221A6005220A
:1024800000213A48FFF7DEF9052200213748FFF71F
:1024900033FAF02206210620FFF7BAF90D220021B7
:1024A0003248FFF7EFF9482212210120FFF7B0F977
:1024B000294B304A5A603C2200212F4812F090FCF0
:1024C0003C2200212D4812F08BFC2B4B0122DA60BC
:1024D0002A4B0122DA60284B14221A82274B14223D
:1024E0001A82254B5022DA61244B5022DA61224BAA
:1024F00000225A62214B00225A62174BDB6A1E4AA5
:10250000D269B3FBF2F213469B0013449B001A46B8
:10251000194B1A63104B9B6A184AD269B3FBF2F24B
:1025200013469B0013449B001A46144B1A630A4B34
:10253000DB6A134AA2FB0323DB081A460E4B5A63DD
:10254000054B9B6A0E4AA2FB0323DB081A460B4B82
:102550005A6300BF80BD00BF00000A4000020200B5
:1025600000040400000808000010100000400F40A4
:1025700028650810000101009C74081060740810A0
:10258000CDCCCCCC80B483B000AF0346FB710B46FE
:10259000BB711346BB800748F979BB79BA884901FA
:1025A0000B4440F8232000BF0C37BD465DF8047B88
:1025B000704700BF0060084080B485B000AFF8608D
:1025C000B9601346FB71FB79F968BA6852010A4495
:1025D00013441B78DBB2002B14BF01230023DBB2B2
:1025E00018461437BD465DF8047B704780B483B04D
:1025F00000AF78600B46FB701346BB70FA78F97831
:102600007B6801F5006153F82110BB78012000FAC6
:1026100003F3DB4319407B6802F5006243F82210A4
:1026200000BF0C37BD465DF8047B70472DE9F047CD
:1026300092B000AFF860B9607A60FB7000237B64F1
:1026400000233B6407F1140300221A605A609A6069
:102650004FF000034FF00104C7E90A34D7E90A3408
:1026600013F1FF3344F1FF34C7E908347B68B3F159
:10267000FF3F02D102237B6005E07B6813F1020F6C
:1026800001D10F237B60FB68002B0ADA3B6C5A1CDC
:102690003A641A46BB6813442D221A70FB685B42E9
:1026A000FB60FB681B144FEAE374C7E90C347C6CD5
:1026B000631C7B64D7E90C014FF00A024FF0000362
:1026C00012F07AF8D3B23033DAB207F14803234478
:1026D00003F8342CD7E90C014FF00A024FF0000345
:1026E00012F06AF803460C46C7E90C34D7E90C34FB
:1026F0002343DCD10EE03B6C5A1C3A641A46BB689B
:1027000013447A6C013A7A6407F114017A6C0A4432
:1027100012781A707B6C002BEDDCFB78002B07D055
:102720003B6C5A1C3A641A46BB6813442E221A703A
:10273000FB681B0419464FEAE172D7E9083403EA43
:10274000010304EA0204C7E90E34D7E90E12D7E9FF
:10275000083403EA010304EA0204DB1844EB04042E
:10276000A60046EA93769D005B1944EB0604C7E990
:102770000E343B6C5A1C3A641A46BB6803EB020ADF
:10278000D7E90E34A0464FF000094FF00A024FF08F
:1027900000034046494612F00FF81C461346DBB2D0
:1027A0003033DBB28AF800307B6C01337B64D7E9CD
:1027B0000E34234303D07A6C7B689A42C5DB7B6C72
:1027C000012B0DDD3B6C013BBA6813441B78302BA9
:1027D00006D13B6C013BBA68134400221A7004E036
:1027E0003B6CBA68134400221A7000BF4837BD46DC
:1027F000BDE8F08780B584B000AFF860B9601346DB
:10280000FB71FB79BA680449F868FFF70FFF024BC8
:1028100018461037BD4680BD6065081080B584B08D
:1028200000AF786039600023FB600BE0FB689B0021
:102830007A6813441B681946064804F023FAFB68BB
:102840000133FB60FA683B689A42EFDB00BF103748
:10285000BD4680BDC088011A80B584B000AF7860E5
:1028600039600023FB600CE0FB685B007A6813446E
:102870001B881BB21946074804F004FAFB680133B1
:10288000FB60FA683B689A42EEDB00BF1037BD463A
:1028900080BD00BFC488011A80B592B000AF034666
:1028A000FB71FB7919467D4804F0ECF9FB79073B95
:1028B0000B2B00F2EF8001A252F823F0ED28001A52
:1028C000FD28001A0D29001A1D29001A4729001A8F
:1028D0006D29001A9329001AB929001ADF29001A54
:1028E000052A001A232A001A772A001A03216C48A5
:1028F000FFF7B2FF0A2004F013F8CBE00321694888
:10290000FFF7AAFF0A2004F00BF8C3E00321664892
:10291000FFF7A2FF0A2004F003F8BBE007F118025A
:1029200007F11F0107F12003184606F0B5FC07F177
:10293000200303211846FFF771FFBB6919465B4866
:1029400004F0A0F9A6E007F1180207F11F0107F152
:102950002003184606F086FC07F1200303211846E1
:10296000FFF75CFF0A2003F0DBFF93E007F118029A
:1029700007F11F0107F12003184606F0A7FC07F135
:10298000200303211846FFF749FF0A2003F0C8FF80
:1029900080E007F1180207F11F0107F12003184634
:1029A00006F0AEFC07F1200304211846FFF736FFBE
:1029B0000A2003F0B5FF6DE007F1180207F11F01CF
:1029C00007F12003184606F03BFD07F12003042120
:1029D0001846FFF723FF0A2003F0A2FF5AE007F191
:1029E000180207F11F0107F12003184606F0A8FEA0
:1029F00007F1200309211846FFF710FF0A2003F012
:102A00008FFF47E007F1180207F11F0107F12003CC
:102A1000184606F091FC3B6A1946254804F032F945
:102A200038E007F10C0300221A605A609A6007F13F
:102A3000180207F11F0107F10C03184605F09EF874
:102A400000237B640FE07B6C9B0007F1480213447A
:102A50003C3B1B68BB60BB681946164804F012F982
:102A60007B6C01337B647B6C022BECDD0A2003F072
:102A700057FF00BF0EE0104B1B68002203211846D1
:102A8000FFF7B8FE01460D4B1B681A460C4804F0D0
:102A9000F9F800BF00BF4837BD4680BDC888011A9D
:102AA000306508103865081040650810D088011A94
:102AB000D888011AC088011A2C65081058650810BA
:102AC000E088011A80B500AF0720FFF7E5FE00BFE0
:102AD00080BD00BF80B500AF0820FFF7DDFE00BF5E
:102AE00080BD00BF80B500AF0920FFF7D5FE00BF55
:102AF00080BD00BF80B500AF0A20FFF7CDFE00BF4C
:102B000080BD00BF80B500AF0B20FFF7C5FE00BF42
:102B100080BD00BF80B500AF0C20FFF7BDFE00BF39
:102B200080BD00BF80B500AF1220FFF7B5FE00BF2B
:102B300080BD00BF80B500AF0D20FFF7ADFE00BF28
:102B400080BD00BF80B500AF0E20FFF7A5FE00BF1F
:102B500080BD00BF80B500AF0F20FFF79DFE00BF16
:102B600080BD00BF80B500AF1020FFF795FE00BF0D
:102B700080BD00BF80B500AF1120FFF78DFE00BF04
:102B800080BD00BF80B588B002AF3A4B1B78002BE8
:102B90006DD0082205213848FFF70EFD0346002BB3
:102BA00065D007F10D03019307F10E030093334B3A
:102BB000334A3449344808F0A3FF0346002B56D16A
:102BC0002E4B1B681946304804F0DCFB2B492F487C
:102BD00007F04EF82D4B1A68284B1B681946104613
:102BE00004F068FC00237B610EE0264A7B6932F822
:102BF00013301AB27B699B0007F118010B4443F8AC
:102C0000182C7B6901337B617B69022BEDDD1B4B4B
:102C10001A683B460021184604F052FB174B1B680C
:102C20001A460021164804F069FC00233B610EE0BF
:102C3000174A3B6932F813301AB23B699B0007F11F
:102C400018010B4443F8182C3B6901333B613B6985
:102C5000022BEDDD09490E4808F03EF9074B1B68D1
:102C60001A4600210A4804F0B3FB04F017FD183798
:102C7000BD4680BD5C65081000400F4058650810D7
:102C80004865081038650810306508102C65081074
:102C90004065081080B582B000AF08220521774852
:102CA000FFF7A4FC5C2201210320FFF76BFC744BAF
:102CB00000221A7000200FF0A3FF724900200FF0CD
:102CC000D3FF7149002010F003F8704B40F6084222
:102CD000C3F8842C002006F099FE0346002B03D095
:102CE00000200FF0A7FFC5E005F0FCFE0EF094FEFB
:102CF0000DF0E6F801200DF0DBF80CF095FD0DF07D
:102D00006FFB09F099FE0CF019F80DF0BBFE0DF009
:102D100075FE06F0FFFD05F021FF792007F098FB16
:102D2000782007F043FB282007F092FA282007F0CC
:102D3000FDFA0023FB710023BB8000237B8000236E
:102D40003B803B1D184607F069FABB1C184607F08C
:102D5000EFF8FB1D184607F071F93B46184608F0DE
:102D600043F9BB881A464A4B93FBF2F3184604F02A
:102D70001BF8BB881A46464B93FBF2F3184604F047
:102D800039F8BB881A46424B93FBF2F3184604F01D
:102D900059F8404805F0CEFD03461A467B88DB0310
:102DA0001946104603F0F0FF3A4805F0C3FD03460C
:102DB0001A46FB79DB031946104604F0EDF8364855
:102DC00005F0B8FD03461A463B88DB03194610465A
:102DD00004F0F2F8002007F05DFD012007F06CFD23
:102DE00008F014F92B4805F0A5FD0346184608F035
:102DF0001DF940F2731008F093FC282008F0FCF94C
:102E0000012007F0BFFE224900200FF02DFF1C4BD0
:102E100001221A70214B224AC3F878211F4B214A04
:102E2000C3F8B0201D4B204AC3F89C201B4B1F4AFF
:102E3000C3F8C420194B1E4AC3F8EC20174B1D4A97
:102E4000C3F8D820154B1C4AC3F80021134B1B4A6A
:102E5000C3F81421114B1A4AC3F828210F4B194A01
:102E6000C3F83C210D4B184AC3F850210B4B174AAD
:102E7000C3F864210837BD4680BD00BF00400F4045
:102E80005C650810801A0600A12B011A006008403A
:102E900040420F001C600810286008106C75081074
:102EA000252B001AD52A001AC52A001AE52A001A6D
:102EB000052B001AF52A001A152B001A352B001ABB
:102EC000452B001A552B001A652B001A752B001A7A
:102ED00080B588B000AF3B600346FB710B46BB7109
:102EE00013467B717B79132B02D94FF0FF3319E026
:102EF000BB793B7307F10C0301337A7939681846C3
:102F000011F070FE7B790133DBB207F10C02F97925
:102F100000200FF051FF0346002B02D14FF0FF338A
:102F200000E0002318462037BD4680BD80B584B040
:102F300002AF3B600346FB710B46BB7113467B71CE
:102F40007B79BA79F97900933B6800200FF06EFF26
:102F50000346002B02D14FF0FF3300E00023184658
:102F60000837BD4680BD00BF0CB480B483B000AF4D
:102F700078603960002318460C37BD465DF8047B45
:102F800002B0704780B483B000AF0346FB710B46BC
:102F9000BB711346BB800748F979BB79BA884901F0
:102FA0000B4440F8232000BF0C37BD465DF8047B7E
:102FB000704700BF0060084080B485B000AFF86083
:102FC000B9601346FB71FB79F968BA6852010A448B
:102FD00013441B78DBB2002B14BF01230023DBB2A8
:102FE00018461437BD465DF8047B704780B483B043
:102FF00000AF78600B46FB701346BB70FA78F97827
:103000007B6801F5006153F82110BB78012000FABC
:1030100003F3DB4319407B6802F5006243F822109A
:1030200000BF0C37BD465DF8047B704780B582B0A9
:1030300000AF022202214948FFF7BEFF0346002BE2
:103040000CD00C2205214548FFF7B6FF0346002BA4
:1030500001D0022300E003237B6006E00C2205215F
:103060003E48FFF7A9FF03467B603D4B1B890133B8
:1030700003F003027B689A4205D1394B1B68013388
:10308000374A136019E0364B1B891A467B680133B7
:1030900003F003039A4205D1314B1B68013B304AD0
:1030A00013600AE02E4B1B891A467B689A4204D0B3
:1030B0002B4B5B6801332A4A53607B689AB2284BDA
:1030C0001A81052202212548FFF776FF0346002BCF
:1030D0000CD0062202212148FFF76EFF0346002B89
:1030E00001D0022300E003237B6006E006220221D8
:1030F0001A48FFF761FF03467B601A4B1B890133B7
:1031000003F003027B689A4205D1164B1B6801331A
:10311000144A136019E0134B1B891A467B6801336C
:1031200003F003039A4205D10E4B1B68013B0D4A85
:1031300013600AE00B4B1B891A467B689A4204D045
:10314000084B5B680133074A53607B689AB2054BB2
:103150001A8100BF0837BD4680BD00BF00400F4048
:10316000D8740810E474081080B500AF044B1A68D6
:10317000044B1B681C21044803F084FD00BF80BD84
:10318000D8740810E4740810E888011A80B500AFFC
:103190003B4B3C4AC3F840223B4B00221A603A4B5F
:1031A00000225A60394B00221A60384B00225A60C4
:1031B000052202213648FFF719FF4022052104208D
:1031C000FFF7E0FE062202213148FFF70FFF402201
:1031D00006210420FFF7D6FE022202212C48FFF729
:1031E00005FF402202210420FFF7CCFE0C2205211E
:1031F0002748FFF7FBFE402208210420FFF7C2FE0C
:10320000022202212248FFF7D7FE0346002B0DD0F1
:103210000C2205211E48FFF7CFFE0346002B01D0EC
:10322000022200E00322184B1A8108E00C2205213B
:103230001748FFF7C1FE03469AB2134B1A810522C5
:1032400002211348FFF7B8FE0346002B0DD00622DB
:1032500002210F48FFF7B0FE0346002B01D00222E7
:1032600000E00322094B1A8108E0062202210848E7
:10327000FFF7A2FE03469AB2044B1A8100BF80BD3D
:103280006C7508106931001AD8740810E4740810BD
:1032900000400F4080B483B000AF0346FB710B4683
:1032A000BB711346BB800748F979BB79BA884901DD
:1032B0000B4440F8232000BF0C37BD465DF8047B6B
:1032C000704700BF0060084080B483B000AF7860F2
:1032D0000B46FB701346BB70FA78F9787B6801F5F2
:1032E000006153F82110BB78012000FA03F3194361
:1032F0007B6802F5006243F8221000BF0C37BD4620
:103300005DF8047B704700BF80B483B000AF786085
:103310000B46FB701346BB70FA78F9787B6801F5B1
:10332000006153F82110BB78012000FA03F3DB435E
:1033300019407B6802F5006243F8221000BF0C3789
:10334000BD465DF8047B704780B483B000AF786001
:103350000B46FB701346BB70FA78BB78012101FA6B
:1033600003F319467B6802F5086243F8221000BF98
:103370000C37BD465DF8047B704700BF80B483B056
:1033800000AF78600B46FB701346BB70FA78BB78D1
:10339000012101FA03F319467B6802F50A6243F83A
:1033A000221000BF0C37BD465DF8047B704700BF9C
:1033B00080B483B000AF78607B685B6843F0010243
:1033C0007B685A6000BF0C37BD465DF8047B7047D0
:1033D00080B483B000AF78607B685B6823F0010243
:1033E0007B685A6000BF0C37BD465DF8047B7047B0
:1033F00080B483B000AF786039607B683A68DA6087
:1034000000BF0C37BD465DF8047B704780B485B0C3
:1034100000AFF8600B467A60FB7297F90B20FB68EF
:103420000632796843F8221000BF1437BD465DF8B4
:10343000047B704780B483B000AF78600B46FB70AC
:103440007B68596997F9032013465B0013440122F6
:1034500002FA03F3DB4301EA03027B685A6100BF0F
:103460000C37BD465DF8047B704700BF80B483B065
:1034700000AF78600B46FB707B68596997F90320B1
:1034800013465B0013440133012202FA03F341EABD
:1034900003027B685A6100BF0C37BD465DF8047BB0
:1034A000704700BF80B483B000AF78600B46FB70FC
:1034B0007B68596997F9032013465B001344013375
:1034C000012202FA03F3DB4301EA03027B685A613B
:1034D00000BF0C37BD465DF8047B704780B483B0F5
:1034E00000AF78600B46FB707B68596997F9032041
:1034F00013465B0013440233012202FA03F3DB4359
:1035000001EA03027B685A6100BF0C37BD465DF8D3
:10351000047B704780B582B000AFA04BA04A1A6010
:103520009E4B02221A739D4B02225A739B4B03221D
:103530009A739A4B0422DA73984B05221A74974BAC
:1035400005225A74954B03229A74944B0422DA7420
:10355000924B06221A83914B06225A838F4B0422E8
:103560009A828E4B0422DA828C4B00229A838B4BF8
:103570000122DA83894B00225A60884B00229A602C
:10358000864B00221A84854B00225A84834B0022EA
:103590005A62032205218348FFF7F0FE0422052129
:1035A0008048FFF7EBFE032205217E48FFF7ACFEC3
:1035B000042205217B48FFF7A7FE784B9B8A1A4619
:1035C00003210220FFF766FE744BDB8A1A460421B2
:1035D0000220FFF75FFE714B734A9A626F4B06221F
:1035E00083F834206D4B062283F835206B4B07227D
:1035F00083F83620694B082283F83720674B052271
:1036000083F83820654B052283F83920634B0F225D
:1036100083F83A20614B102283F83B205F4B052250
:10362000A3F840205D4B0522A3F842205B4B042207
:103630009A875A4B0422DA87584B0022A3F8442079
:10364000564B0122A3F84620544B0022DA62534B1A
:1036500000221A63514B0022A3F848204F4B00224E
:10366000A3F84A204D4B0022DA640F2205214D4871
:10367000FFF784FE102205214A48FFF77FFE0F2244
:1036800005214848FFF740FE102205214548FFF775
:103690003BFE424B9B8F1A4607210620FFF7FAFD9F
:1036A0003E4BDB8F1A4608210620FFF7F3FD3B4B0C
:1036B0003E4A1A65394B022283F85C20374B0222BE
:1036C00083F85D20354B082283F85E20334B0922B6
:1036D00083F85F20314B052283F860202F4B0122B5
:1036E00083F861202D4B072283F862202B4B0A229E
:1036F00083F86320294B0122A3F86820274B01227D
:10370000A3F86A20254B0422A3F86420234B00224F
:10371000A3F86620214B0022A3F86C201F4B032244
:10372000A3F86E201D4B00225A651C4B00229A659F
:103730001A4B0022A3F87020184B0022A3F8722025
:10374000164B00225A67072205211648FFF716FE7E
:103750000A2201211348FFF711FE07220521114813
:10376000FFF7D2FD0A2201210E48FFF7CDFD0B4BDA
:10377000B3F864301A4608210220FFF78BFD074B8F
:10378000B3F866301A4609210220FFF783FD0023B3
:103790007B607BE000233B6072E000BFF0740810A8
:1037A00000400C4000400F4000300C4000400840FA
:1037B0003A497A6813469B001344DB000B441868AF
:1037C00036497A6813469B0013449B003A681344B9
:1037D0000C335B000B449B88DBB25BB21946FFF7EE
:1037E00061FE2E497A6813469B001344DB000B44AC
:1037F00018682A497A6813469B0013449B003A686C
:1038000013440C335B000B449B88DBB25BB219465C
:10381000FFF764FE21497A6813469B001344DB00DE
:103820000B4418681D497A6813469B0013449B009B
:103830003A6813440C335B000B449B88DBB25BB2E9
:103840001946FFF7F7FD15497A6813469B001344A4
:10385000DB000B44186811497A6813469B00134437
:103860009B003A6813440C335B000B449B88DBB22B
:103870005BB2012201210FF0C9FD3B6801333B60BF
:103880003B68012B94DD7B6801337B607B68022BF6
:1038900080DD00BF0837BD4680BD00BFF074081052
:1038A00090B585B000AF03463960FB71FB79022B00
:1038B00001D9012334E19C4B1B78002B04D0FB7908
:1038C000002B01D101232BE1FA79984913469B0083
:1038D0001344DB000B441B68FB60FA7993491346E1
:1038E0009B001344DB000B4424333A681A603B68A6
:1038F000002B40F0B780F8680FF05AFD002202213B
:10390000F868FFF783FDFA79884913469B00134452
:10391000DB000B44203300221A80FA7983491346D6
:103920009B001344DB000B44223300221A80FA79F7
:103930007E4913469B001344DB000B441033187878
:10394000FA797A4913469B001344DB000B44123387
:103950001B781A4601467648FFF7D6FCFA79734978
:1039600013469B001344DB000B4411331878FA799B
:103970006E4913469B001344DB000B4413331B7842
:103980001A4601466A48FFF7BFFCFA7967491346B1
:103990009B001344DB000B4410331878FA79634919
:1039A00013469B001344DB000B4412331B781A466A
:1039B00001465F48FFF7E2FCFA795C4913469B0039
:1039C0001344DB000B4411331878FA795749134636
:1039D0009B001344DB000B4413331B781A4601464B
:1039E0005348FFF7CBFCFA79504913469B00134428
:1039F000DB000B440C331878FA794C4913469B00D2
:103A00001344DB000B440E331C78FA794749134604
:103A10009B001344DB000B4414331B881A462146D9
:103A2000FFF738FCFA79414913469B001344DB0049
:103A30000B440D331878FA793C4913469B00134424
:103A4000DB000B440F331C78FA79384913469B008E
:103A50001344DB000B4416331B881A462146FFF73C
:103A600019FC5CE0F8680FF093FCF868FFF7B0FC15
:103A7000F8680FF0ADFCBF21F868FFF7B9FC022130
:103A8000F868FFF7F3FC0221F868FFF727FD022131
:103A9000F868FFF7CFFC3A680221F868FFF7B6FC38
:103AA000FA79224913469B001344DB000B44203370
:103AB0001B88002B0DD0FA791C4913469B00134438
:103AC000DB000B4404331A68FB790021184600F030
:103AD0006FF8FA79154913469B001344DB000B4439
:103AE00022331B88002B0DD0FA79104913469B0016
:103AF0001344DB000B4408331A68FB790121184694
:103B000000F056F8022302220021F8680FF07EFC34
:103B1000FB684FF0FF321A60F868FFF749FC00239A
:103B200018461437BD4690BD18650810F07408108B
:103B300000400F4080B582B000AF03463A60FB7191
:103B40000B46BB71BB79012B02D8FB79022B01D943
:103B5000012323E0134B1B78002B04D0FB79002BAF
:103B600001D101231AE03B68642B01D964233B6037
:103B7000FA790D4913469B001344DB000B442433B0
:103B80001B683A6802FB03F3084AA2FB03235A09A5
:103B9000B979FB79184600F00BF803461846083748
:103BA000BD4680BD18650810F07408101F85EB51E4
:103BB000B0B584B000AF03463A60FB710B46BB71F1
:103BC000BB79012B02D8FB79022B01D9012327E114
:103BD000954B1B78002B04D0FB79002B01D10123DE
:103BE0001EE1FA79914913469B001344DB000B4414
:103BF0001B68FB60FA79B9798C4813469B00134423
:103C00005B000B449B0003443A685A60FA79B97927
:103C1000864813469B0013449B000B44103301223B
:103C200020F813203B68002B5DD1FA79B9797F48E1
:103C300013469B001344DB0003440B4410331C78F1
:103C4000FA79B979794813469B001344DB000344A1
:103C50000B4412331B781A4621467548FFF734FB94
:103C6000FA79B979714813469B001344DB00034489
:103C70000B4410331C78FA79B9796C4813469B00D1
:103C80001344DB0003440B4412331B781A462146CD
:103C90006748FFF773FBFA79B979644813469B00CC
:103CA0001344DB0003440B440C331C78FA79B979D4
:103CB0005E4813469B001344DB0003440B440E3361
:103CC0001D78FA79B979594813469B0013449B0033
:103CD0000B4408335B0003449B881A462946204660
:103CE000FFF7D8FA9BE0FB681A6A3B689A425DD8F6
:103CF000FA79B9794D4813469B001344DB0003441D
:103D00000B4410331C78FA79B979484813469B0064
:103D10001344DB0003440B4412331B781A4621463C
:103D20004348FFF7D1FAFA79B979404813469B0026
:103D30001344DB0003440B4410331C78FA79B9793F
:103D40003A4813469B001344DB0003440B441233F0
:103D50001B781A4621463648FFF7F6FAFA79B97900
:103D6000324813469B001344DB0003440B440C33DE
:103D70001C78FA79B9792D4813469B001344DB006F
:103D800003440B440E331D78FA79B979274813465A
:103D90009B0013449B000B4408335B0003449B8847
:103DA0001A4629462046FFF775FA38E0FA79B979BC
:103DB0001E4813469B0013449B000B440C335B00CE
:103DC00003449B88DBB25BB23A681946F868FFF798
:103DD0001DFBFA79B979154813469B001344DB00A3
:103DE00003440B440C331C78FA79B9790F48134615
:103DF0009B001344DB0003440B440E331D78FA7917
:103E0000B9790A4813469B0013449B000B440C33BA
:103E100030F813301A4629462046FFF73BFA0023B4
:103E200018461037BD46B0BD18650810F07408106C
:103E300000400F4080B483B000AF0346FB710B46D7
:103E4000BB711346BB800748F979BB79BA88490131
:103E50000B4440F8232000BF0C37BD465DF8047BBF
:103E6000704700BF0060084080B584B000AF0346D3
:103E70000A46FB711346BB7107F10E02BB79194666
:103E80000A480DF0A5FE0346012B06D1FB79FA89FD
:103E90001946074802F0F6FE04E0FB79194605488A
:103EA00002F0F0FE00BF1037BD4680BD00400E405E
:103EB000F488011A0089011A80B500AF002201219F
:103EC00006480DF097FE012104480DF0E7FE01229F
:103ED000012102480DF0B6FE00BF80BD00400E403B
:103EE00080B582B000AFBB1C1A4601210C480DF012
:103EF0006FFE0346012B0CD17B881A4647F6500310
:103F000003FB02F39B127B607968064802F0BAFE5D
:103F100002E0054802F026FD00BF0837BD4680BD1F
:103F200000400E400C89011A1489011A80B500AFB7
:103F30000022012106480DF05DFE012104480DF02C
:103F4000ADFE0122022102480DF07CFE00BF80BDC3
:103F500000400E4080B500AF02210120FFF784FF32
:103F600000BF80BD80B500AF0022012106480DF0E2
:103F700041FE012104480DF091FE01220321024877
:103F80000DF060FE00BF80BD00400E4080B500AF68
:103F900003210220FFF768FF00BF80BD80B500AF9E
:103FA0000022012106480DF025FE012104480DF0F4
:103FB00075FE0122042102480DF044FE00BF80BDC1
:103FC00000400E4080B500AF04210320FFF74CFFF6
:103FD00000BF80BD80B500AF0022012106480DF072
:103FE00009FE012104480DF059FE01220521024875
:103FF0000DF028FE00BF80BD00400E4080B500AF30
:1040000005210420FFF730FF00BF80BD80B500AF61
:104010000022012106480DF0EDFD012104480DF0BC
:104020003DFE0122062102480DF00CFE00BF80BDBE
:1040300000400E4080B500AF06210520FFF714FFB9
:1040400000BF80BD80B500AF0022012106480DF001
:10405000D1FD012104480DF021FE01220721024873
:104060000DF0F0FD00BF80BD00400E4080B500AFF8
:1040700007210620FFF7F8FE00BF80BDF0B583B032
:1040800002AF0020FDF70EFD05460120FDF70AFDF9
:1040900006460020FDF7DAFC04460120FDF7D6FCB9
:1040A00003460193009433462A461321034802F045
:1040B000E9FD00BF0437BD46F0BD00BF1C89011AF1
:1040C00080B500AF172201210420FFF7B3FE1722AD
:1040D00003210420FFF7AEFE0E4A0E4BD3F8883CB6
:1040E00043F00303C2F8883C002201210A480DF086
:1040F00081FD012108480DF0D1FD01220021064873
:104100000DF0A0FD0122012103480DF09BFD00BF31
:1041100080BD00BF0060084000300E402DE9F04334
:1041200089B002AF4FF0FF334FF0FF34C7E90434DA
:104130004FF0FF334FF0FF34C7E90234BB1D1A467E
:10414000002130480DF044FD0346012B21D1FB88AE
:104150009BB24FF000042C4A02FB04F1002202FB48
:1041600003F20A442849A3FB0134224414464FEACF
:10417000932848EA84584FEA94294FF47A724FF012
:1041800000034046494610F017FB03460C46C7E9BA
:1041900004343B1D1A4601211A480DF019FD03464F
:1041A000012B1FD1BB889BB24FF00004164A02FBC3
:1041B00004F1002202FB03F20A441349A3FB013479
:1041C000224414469D0A45EA8455A60A4FF47A72A1
:1041D0004FF000032846314610F0EEFA03460C4635
:1041E000C7E90234D7E90234CDE90034D7E9042322
:1041F0001421064802F046FD00BF1C37BD46BDE84D
:10420000F08300BF00300E40404A874D3089011ACC
:1042100080B500AF044B1B681A461521034802F015
:1042200031FD00BF80BD00BF7C6508103C89011ACC
:1042300080B582B000AF634963480DF085FC002271
:10424000002161480DF0D6FC5E4960480DF07CFC11
:10425000002200215D480DF0CDFC5D4B00221A705C
:104260005C4B00221A6000237B604DE05A4A7B6859
:10427000002142F8231059497A6813469B001344E1
:104280009B000B4400221A7054497A6813469B0025
:1042900013449B000B44013300221A704F497A6883
:1042A00013469B0013449B000B44043300221A6006
:1042B0004A497A6813469B0013449B000B44083319
:1042C00000221A6045497A6813469B0013449B00FC
:1042D0000B4402334FF6FF721A8040497A68134646
:1042E0009B0013449B000B440C3300221A603B4993
:1042F0007A6813469B0013449B000B441033002242
:104300001A607B6801337B607B681F2BAEDD334B0B
:10431000334ADA60314B334A1A61304B324A1A62FF
:104320002E4B324A5A622D4B314A5A632B4B314A3B
:104330009A632A4B304A9A64284B304ADA64274BF6
:104340002F4ADA65254B2F4A1A66244B2E4A1A67E4
:10435000224B2E4A5A67214B2D4AC3F884201F4B0B
:104360002C4AC3F888201D4B2B4AC3F89C211B4BB9
:104370002A4AC3F8A021194B294AC3F88C21174BAC
:10438000284AC3F8B42169200EF02EF90246264BC4
:10439000A3FB02239B09013B3B603B68B3F1807F99
:1043A00002D36FF07F433B60204A3B6853601F4A53
:1043B0001E4B1B6843F00703136000BF0837BD4660
:1043C00080BD00BF8065081000300E4000400E40E8
:1043D000687508106C780810EC7708106C75081078
:1043E000B93E001AE13E001A2D3F001A553F001A4F
:1043F000653F001A8D3F001A9D3F001AC53F001A05
:10440000D53F001AFD3F001A0D40001A3540001A32
:104410004540001A6D40001AC140001A1D41001AA3
:104420007D40001A1142001AD34D621010E000E0E6
:1044300080B586B000AFF8600B467A60FB7200234F
:104440007B6112E001227B6902FA03F31A46FB68E2
:104450001340002B06D07B69DBB2F97A7A681846E4
:1044600000F00AF87B6901337B617B691F2BE9DD72
:1044700000BF1837BD4680BD80B584B000AF03468D
:104480003A60FB710B46BB71FB791F2B00F2E38096
:10449000FA79744913469B0013449B000B44103374
:1044A0001B68002B00F0D9806F4A6F4B1B6823F00C
:1044B00001031360BB79002B73D0FA796949134665
:1044C0009B0013449B000B4402331B881BB2B3F1C7
:1044D000FF3F5BD1FA79634913469B0013449B006D
:1044E0000B4408333A681A60FA795E4913469B0018
:1044F00013449B000B4404333A681A605B4B1A6800
:10450000531C5A490B60F9790B469B000B449B00E6
:1045100054490B44564941F82230FA79534B1B68F1
:104520009BB2013B9BB298B24E4913469B00134489
:104530009B000B44023302461A80FA79494913461C
:104540009B0013449B000B441B78002B7CD1FA7911
:10455000444913469B0013449B000B4401221A70EC
:10456000FA79404913469B0013449B000B440C33DB
:104570001B68002B68D0FA793A4913469B00134414
:104580009B000B440C331B6898475DE0FA79354972
:1045900013469B0013449B000B4404333A681A6093
:1045A00052E0FA792F4913469B0013449B000B44B9
:1045B00002331B881BB2B3F1FF3F45D0FA7929497A
:1045C00013469B0013449B000B4402331B881AB212
:1045D000264B1B68013B9A421CD0FA7921491346AD
:1045E0009B0013449B000B4402331B881BB2FB60EF
:1045F0000BE0FB6801331E4A52F823201C49FB687C
:1046000041F82320FB680133FB60FA68174B1B68F5
:104610009A42EED3FA79134913469B0013449B0048
:104620000B4402334FF6FF721A80FA790D49134694
:104630009B0013449B000B44013300221A700B4B68
:104640001B68013B094A1360074A074B1B6843F08C
:104650000103136002E000BF00E000BF1037BD4659
:1046600080BD00BF6C75081010E000E06C78081089
:10467000EC77081080B584B000AF78600023FB6051
:104680004BE00122FB6802FA03F31A467B681340F1
:10469000002B3FD02449FA6813469B0013449B002B
:1046A0000B441B78002B20D11F49FA6813469B004E
:1046B00013449B000B4401221A701B49FA681346ED
:1046C0009B0013449B000B440C331B68002B09D048
:1046D0001549FA6813469B0013449B000B440C33A6
:1046E0001B689847642001F0CFFF0F49FA68134612
:1046F0009B0013449B000B4410331B68002B09D014
:104700000949FA6813469B0013449B000B4410337D
:104710001B689847FB680133FB60FB681F2BB0DD0B
:1047200000BF1037BD4680BD6C75081080B582B0E3
:1047300000AF774B1B8801339AB2754B1A80744BCC
:104740001B88632B40F28580714B00221A80714BCD
:10475000DB6803F00403002B3AD06E4B9B68002B00
:1047600031D16C4BDB6803F00103002B17D0694B90
:104770005B68002B2CD0674B5B685A2202FB03F36B
:10478000654A82FB03125211DB17D31A614A536048
:10479000604B5B6819460020FDF70AFD18E05D4B91
:1047A0005B69002B05DD5B4B5B69013B594A53613B
:1047B0000EE0584B5B69002B0ADA564B5B690133FC
:1047C000544A536104E0534B9B68013B514A936048
:1047D000524BDB6803F00403002B3AD04F4B9B682D
:1047E000002B31D14D4BDB6803F00103002B17D0B8
:1047F0004A4B5B68002B2CD0484B5B685A2202FB6B
:1048000003F3454A82FB03125211DB17D31A434AC2
:104810005360424B5B6819460120FDF7C9FC18E064
:104820003E4B5B69002B05DD3C4B5B69013B3B4A22
:1048300053610EE0394B5B69002B0ADA374B5B6939
:104840000133364A536104E0344B9B68013B334AE1
:104850009360304BDB6803F00203002B03D02D4B39
:10486000012283F838202D4BDB6803F00203002B74
:1048700003D02A4B012283F83820294B1B880133AF
:104880009AB2274B1A80264B1B88B3F57A7F14D334
:10489000244B03F5C0430C331B68234A1360BFF35A
:1048A0004F8F204B03F5C0430C3300221A601C4B82
:1048B00000221A801D4B01221A6000237B601EE03B
:1048C0001B4A7B6852F823209368013B9360002BBE
:1048D00012D1174A7B6852F8233015497A6851F88B
:1048E000222052689A60124A7B6852F823300122D3
:1048F0005A70104B01221A707B6801337B607A6812
:104900000D4B1B689A42DBD300BF0837BD4680BD04
:10491000886508109C7408101F85EB51607408109E
:104920008A650810000008107C65081020650810D2
:10493000EC770810687508106C78081080B485B0A2
:1049400000AF786039607B685B6823F00F03FB6021
:10495000FA683B681A437B685A6000BF1437BD464B
:104960005DF8047B704700BF80B500AF08480DF0CC
:104970009BFE012106480DF0C3FE08210448FFF705
:10498000DDFF4FF4B77102480DF0A0FE00BF80BDFF
:1049900000100E4080B582B000AF0A4B7B600A4A1F
:1049A0007B681A600DF0C6FE0122084901200EF056
:1049B0006FFC0DF091F90EF0E5FA00BF0837BD4627
:1049C00080BD00BF08ED00E00000001A00B0710BD0
:1049D00080B483B000AF0346FB71094997F90730F3
:1049E0005B09FA7902F01F02012000FA02F220337B
:1049F00041F8232000BF0C37BD465DF8047B7047AB
:104A000000E100E080B483B000AF0346FB710B46C9
:104A1000BB711346BB800748F979BB79BA88490155
:104A20000B4440F8232000BF0C37BD465DF8047BE3
:104A3000704700BF0060084080B483B000AF78606A
:104A40000B46FB701346BB70FA78F9787B6801F56A
:104A5000006153F82110BB78012000FA03F31943D9
:104A60007B6802F5006243F8221000BF0C37BD4698
:104A70005DF8047B704700BF80B483B000AF7860FE
:104A80000B46FB701346BB70FA78F9787B6801F52A
:104A9000006153F82110BB78012000FA03F3DB43D7
:104AA00019407B6802F5006243F8221000BF0C3702
:104AB000BD465DF8047B704780B483B000AF78607A
:104AC0000B46FB701346BB70FA78BB78012101FAE4
:104AD00003F319467B6802F5086243F8221000BF11
:104AE0000C37BD465DF8047B704700BF80B483B0CF
:104AF00000AF78600B46FB701346BB70FA78BB784A
:104B0000012101FA03F319467B6802F50A6243F8B2
:104B1000221000BF0C37BD465DF8047B704700BF14
:104B200080B483B000AF78600B46FB70FA787B6886
:104B3000083253F8223018460C37BD465DF8047B26
:104B4000704700BF80B483B000AF78607B685B685B
:104B500043F001027B685A6000BF0C37BD465DF828
:104B6000047B704780B483B000AF78607B685B687B
:104B700023F001027B685A6000BF0C37BD465DF828
:104B8000047B704780B483B000AF786039607B6885
:104B90003A68DA6000BF0C37BD465DF8047B7047A9
:104BA00080B485B000AFF8600B467A60FB7297F96D
:104BB0000B20FB680632796843F8221000BF1437D7
:104BC000BD465DF8047B704780B483B000AF786069
:104BD0000B46FB707B68596997F9032013465B000D
:104BE0001344012202FA03F3DB4301EA03027B6868
:104BF0005A6100BF0C37BD465DF8047B704700BFAB
:104C000080B483B000AF78600B46FB707B68596955
:104C100097F9032013465B0013440133012202FA83
:104C200003F341EA03027B685A6100BF0C37BD46BB
:104C30005DF8047B704700BF80B483B000AF78603C
:104C40000B46FB707B68596997F9032013465B009C
:104C500013440233012202FA03F3DB4301EA0302A5
:104C60007B685A6100BF0C37BD465DF8047B704716
:104C700080B483B000AF78600B46FB707B68996AA4
:104C800097F9032013465B001344012202FA03F351
:104C900041EA03027B689A6200BF0C37BD465DF8AB
:104CA000047B704780B483B000AF78600B46FB7024
:104CB0007B68996A97F9032013465B00134401331C
:104CC000012202FA03F341EA03027B689A6200BF01
:104CD0000C37BD465DF8047B704700BF80B483B0DD
:104CE00000AF78600B46FB707B68996A97F90320E8
:104CF00013465B0013440233012202FA03F3DB4341
:104D000001EA03027B689A6200BF0C37BD465DF87A
:104D1000047B704780B483B000AF78600B46FB70B3
:104D20001346BB70FA7897F902309B001A437B68F0
:104D30001A6700BF0C37BD465DF8047B704700BFA3
:104D400080B483B000AF78607B680122DA6500BF71
:104D50000C37BD465DF8047B704700BF80B483B05C
:104D600000AF786039607B681A693B681A437B68DA
:104D70001A6100BF0C37BD465DF8047B704700BF69
:104D800080B500AF002200210248FFF795FE00BF6A
:104D900080BD00BF00400F4080B500AF0022002161
:104DA0000248FFF7A3FE00BF80BD00BF00400F40D8
:104DB00080B483B000AF0346FB71FB79002B14BFB6
:104DC00001230023DBB21A46034B1A7000BF0C37D5
:104DD000BD465DF8047B70472465081080B483B03D
:104DE00000AF78600B46FB707B6803F500531B68CF
:104DF0007A68F978D1547B6803F500531B68013356
:104E0000C3F30B027B6803F500531A6000BF0C3735
:104E1000BD465DF8047B704780B483B000AF786016
:104E20007B6803F500530C331A687B6803F5005365
:104E300008331B68D31A013BC3F30B0318460C3726
:104E4000BD465DF8047B704780B483B000AF7860E6
:104E50007B6803F5005304331A687B6803F500533D
:104E60001B68D31A013BC3F30B0318460C37BD462E
:104E70005DF8047B704700BF80B400AF064B5B68F1
:104E800003F00303032B0CBF01230023DBB21846FE
:104E9000BD465DF8047B70470030044080B483B0A9
:104EA00000AF0346FB71FB79002B06D0094B1B6852
:104EB00043F00103074A136005E0064B1B6823F02B
:104EC0000103044A136000BF0C37BD465DF8047B44
:104ED000704700BF3C74081080B582B000AF034635
:104EE000FB7100E000BF0748FFF7AEFF0346002B51
:104EF000F8D0FB7919460348FFF770FF00BF083769
:104F0000BD4680BD0000001080B582B000AF786063
:104F100039608022002135480FF062FF344B0022B7
:104F20001A60344B02221A6042F210020021324809
:104F30000FF056FF314B324A1A607B68314A934278
:104F400026D11820FFF744FDF12200210220FFF7AF
:104F500059FDF12201210220FFF754FD0A22002110
:104F60002948FFF7C3FD0A2200212748FFF764FD07
:104F7000F02203210120FFF745FD082201212248EC
:104F8000FFF77AFD482205210120FFF73BFD1EE0D7
:104F90007B681E4A93421AD11920FFF719FDF422AB
:104FA00004210320FFF72EFD49220E210120FFF7E7
:104FB00029FDF42202210520FFF724FD4C220421C3
:104FC0000520FFF71FFDC0211048FFF7C7FE7868D6
:104FD0000EF0DCFA396878680EF028FB7868FFF785
:104FE000AFFE00BF0837BD4680BD00BF7478081013
:104FF000F47808107078081000000010F878081095
:10500000D94E001A0010084000400F400020084010
:1050100080B500AF0E4801F0A5FC0E4801F0A2FCDF
:105020000D4801F09FFC0D4801F09CFC0C4801F07C
:1050300099FC0C4801F096FC0B4B1B680B4AA2FB39
:1050400003239B0C19460A4801F01CFE00BF80BDDB
:105050005089011A5C89011A6489011A6C89011A44
:105060007489011A7C89011AF880081083DE1B43B9
:105070009489011A80B500AFFFF7CAFF0A2001F03A
:105080004FFC444801F06EFC0A2001F049FC424804
:1050900001F068FC414801F065FC414801F062FC08
:1050A000404801F05FFC404801F05CFC3F4801F0E3
:1050B00059FC3F4801F056FC0A2001F031FC3D4804
:1050C00001F050FC3C4801F04DFC3C4801F04AFC2A
:1050D0003B4801F047FC0A2001F022FC394801F06E
:1050E00041FC394801F03EFC384801F03BFC0A2005
:1050F00001F016FC364801F035FC364801F032FC70
:10510000354801F02FFC354801F02CFC0A2001F055
:1051100007FC334801F026FC324801F023FC0A204A
:1051200001F0FEFB304801F01DFC304801F01AFC94
:105130002F4801F017FC2F4801F014FC2E4801F015
:1051400011FC2E4801F00EFC2D4801F00BFC2D48FF
:1051500001F008FC0A2001F0E3FB2B4801F002FCFF
:105160002A4801F0FFFB0A2001F0DAFB284801F091
:10517000F9FB284801F0F6FB274801F0F3FB0A2071
:1051800001F0CEFB254801F0EDFB0A2001F0C8FB41
:1051900000BF80BDC889011AE089011A188A011A66
:1051A000648A011AA88A011AF08A011A388B011A36
:1051B000708B011AB08B011AE88B011A248C011A2A
:1051C000688C011AA48C011AD48C011A048D011A5E
:1051D000448D011A8C8D011AD88D011A1C8E011A6A
:1051E000488E011A708E011AA48E011ADC8E011AE3
:1051F000188F011A548F011A948F011AE08F011A27
:105200003490011A7C90011ABC90011AFC90011A8A
:105210004C91011A8C91011AB491011ADC91011A76
:1052200080B500AF0E4801F09DFB0E4801F09AFBDF
:105230000D4801F097FB0D4801F094FB0C4801F07C
:1052400091FB0C4801F08EFB0A2001F069FB0A4833
:1052500001F088FB0A2001F063FB00BF80BD00BFA6
:105260001092011A3892011A7C92011AC492011A02
:105270000893011A4C93011A9093011A80B500AF5C
:10528000274801F06FFB274801F06CFB264801F02E
:1052900069FB264801F066FB254801F063FB2548C1
:1052A00001F060FB244801F05DFB244801F05AFB4B
:1052B000234801F057FB234801F054FB224801F03A
:1052C00051FB224801F04EFB214801F04BFB2148E5
:1052D00001F048FB204801F045FB204801F042FB6B
:1052E0001F4801F03FFB1F4801F03CFB1E4801F046
:1052F00039FB1E4801F036FB1D4801F033FB1D4809
:1053000001F030FB1C4801F02DFB1C4801F02AFB8A
:105310001B4801F027FB0A2001F002FB00BF80BD03
:10532000B893011AD893011A0894011A5094011ADB
:105330009894011AE094011A2895011A7095011A9F
:10534000B895011A0096011A4C96011A9C96011AFA
:10535000E896011A2C97011A7497011AC497011A3A
:105360000898011A5098011A9098011AD498011AB5
:105370001C99011A6899011ABC99011A049A011A18
:105380004C9A011A80B485B000AF78600023FB60AE
:1053900012E0FA6813469B0013445B00FB607B68D5
:1053A0001B681B781A46FB681344303BFB607B6824
:1053B0001B685A1C7B681A607B681B681B782F2B44
:1053C00004D97B681B681B78392BE2D9FB68184627
:1053D0001437BD465DF8047B704700BF80B582B0CE
:1053E00000AF78607B681B681B782D2B0AD17B6827
:1053F0001B685A1C7B681A607868FFF7C3FF034676
:105400005B420DE07B681B681B782B2B04D17B680B
:105410001B685A1C7B681A607868FFF7B3FF034665
:1054200018460837BD4680BD2DE9F0438BB004AF68
:105430009B4B5B783F3B352B00F2298101A252F850
:1054400023F000BF5D56001A8F56001A8F56001ABF
:105450001D55001A8F56001A8F56001A7F55001AD4
:105460008F56001A8F56001A8F56001A8F56001A40
:105470008F56001A8F56001A8F56001A8D55001A33
:105480008F56001A8F56001A8F56001A8F56001A20
:105490008F56001AF555001A0D56001A8F56001A2D
:1054A0008F56001A8F56001A8F56001A8F56001A00
:1054B0008F56001A8F56001A8F56001A8F56001AF0
:1054C0008F56001A8F56001A8F56001A8F56001AE0
:1054D0001D55001A8F56001A8F56001A7F55001A54
:1054E0008F56001A8F56001A8F56001A8F56001AC0
:1054F0008F56001A8F56001A8F56001A8D55001AB3
:105500008F56001A8F56001A8F56001A8F56001A9F
:105510008F56001AF555001A0D56001A614BFB60A4
:10552000FB681B78412B03D0FB681B78612B13D1E0
:1055300000237B610CE07B691846FBF737F90346D3
:105540001A467969584801F09DFB7B6901337B61FC
:105550007B690B2BEFDD9DE007F10C031846FFF78D
:1055600011FF03467B617B691846FBF71FF9034671
:105570001A4679694C4801F085FB00BF8AE04B4B25
:105580001B6819464A4801F07DFB83E0454BBB6030
:10559000BB681B78432B03D0BB681B78632B22D1DD
:1055A000BB680133BB6007F108031846FFF7EAFE4A
:1055B00038613B69002B09D13E4BD9693D4B1A6AD2
:1055C0003C4B5B6A3C4801F05DFB10E03B69012B02
:1055D0000DD13A4BD969394B1A6A384B5B6A384856
:1055E00001F050FB03E0374801F0BCF900E000BFD8
:1055F00000BF4FE02B4B7B603B1D1846FFF7C2FE00
:1056000003461846FFF736F800BF43E007212E484F
:10561000FFF786FA064606212B48FFF781FA8046F7
:1056200003212948FFF77CFA814602212648FFF72B
:1056300077FA044601212448FFF772FA0546002153
:105640002148FFF76DFA03460293019500944B46FB
:10565000424631461D4801F015FB1BE0104B9B787C
:10566000652B03D00E4B9B78452B02D1FFF7D8FD5D
:1056700010E00B4B9B78732B03D0094B9B78532B7B
:1056800002D1FFF7FBFD05E0FFF7F4FC02E00D4857
:1056900001F068F900BF1C37BD46BDE8F08300BFCC
:1056A0007478081076780810849A011A1C6508101E
:1056B000909A011A9C740810989A011A6074081044
:1056C000A89A011AB89A011A00600440CC9A011AEB
:1056D00090B59FB000AFAC4B5B78413B342B00F2F0
:1056E000F68501A252F823F0BD57001AFB57001AA5
:1056F000CF62001ACF62001AE758001ACF62001A70
:10570000CF62001ACF62001ACF62001ACF62001A6D
:10571000CF62001A475B001A8B5B001ACF62001A37
:10572000CF62001AF35E001ACF62001ACF62001A2D
:105730000F60001ACB60001ABD61001ACF62001A18
:10574000CF62001ACF62001ACF62001ACF62001A2D
:10575000CF62001ACF62001ACF62001ACF62001A1D
:10576000CF62001ACF62001ABD57001AFB57001A09
:10577000CF62001ACF62001AE758001ACF62001AEF
:10578000CF62001ACF62001ACF62001ACF62001AED
:10579000CF62001A475B001A8B5B001ACF62001AB7
:1057A000CF62001AF35E001ACF62001ACF62001AAD
:1057B0000F60001ACB60001ABD61001A734B3B6486
:1057C0003B6C1B783D2B02D13B6C01333B6407F1F2
:1057D00040031846FFF7D6FDF866FB6EB3F5806F01
:1057E00004D36B4801F0BEF800F086BDF96E69483D
:1057F0000CF06CFF00BF00F07FBD634B9B78462B25
:1058000003D0614B9B78662B0FD1634B1B68002B39
:1058100006D1624B1B68012B02D9614801F0A2F846
:105820000120FBF717F900F067BD574B9B78442B1D
:1058300003D0554B9B78642B25D1534BDB782F2B12
:105840001CD9514BDB78352B18D8534B1B68002BD8
:1058500009D1524B1B68012B05D94B4BDB781946FC
:10586000504801F00FFA484BDB78303B1846FAF706
:10587000B3FF0120FBF7EEF800F03EBD4A4801F00F
:1058800071F800F039BD414BFB6307F13C0318464A
:10589000FFF778FD0346BB66FB6B0133FB6307F143
:1058A0003C031846FFF76EFD03467B66BB6E7A6EBF
:1058B00011461846FAF764FF374B1B68002B40F07F
:1058C0000A85364B1B68012B40F20585BB6E1846D6
:1058D000FAF76CFF03461A46B96E344801F0D2F964
:1058E00000BF00F0F8BC294BBB63BB6B1B78742B6B
:1058F00004D0BB6B1B78542B40F00581BB6B01338C
:10590000BB63BB6B1B78732B03D0BB6B1B78532B18
:1059100058D1274B03221A702648FFF723F90A2093
:1059200000F0B2FE244B03F5C04304331A68224B47
:1059300003F5C04308331A6000211E48FFF722F91F
:10594000F32204210220FFF75DF81C4B00221A61AC
:1059500000211848FFF78CF900211648FFF7A2F93B
:1059600000211448FFF7BAF9002203211148FFF77C
:10597000D1F910480DF02CFD0E48FFF7E3F8104860
:1059800000F0F0FF00F0B8BC7478081076780810CA
:10599000F09A011A00100E403C740810707808103C
:1059A0001C9B011A249B011A2C9B011A849A011A30
:1059B00018650810005008400000081000700C40E6
:1059C000549B011ABB6B1B786D2B03D0BB6B1B78F0
:1059D0004D2B66D1BB6B0133BB63BB6B1B78302B8C
:1059E00030D1994B01221A7098480DF0D1FC5F21FB
:1059F0009648FFF7C7F801219448FFF701F9012104
:105A00009248FFF719F901219048FFF7DDF80122CC
:105A100001218E48FFF7C4F80123012200218B48A1
:105A20000DF0F4FCF62204210220FEF7EBFF87487C
:105A3000FFF788F88648FFF785F8864800F092FF60
:105A400000F05ABC804B02221A708048FFF78AF897
:105A50000123032200217D480DF0D8FCF622042109
:105A60000220FEF7CFFF7A48FFF77CF80A2000F00B
:105A70000BFE794B03F5C04304331A68764B03F5EC
:105A8000C04308331A6072480DF0A2FC6F48FFF75C
:105A900059F86F48FFF756F8704800F063FF00F0C0
:105AA0002BBCBB6B1B78692B03D0BB6B1B78492BC2
:105AB0001DD1654B1B78012B13DB022B0ADD032B59
:105AC00000D00EE021200DF0C5FA61480DF070FC09
:105AD000FAF74AFD5C4B00221A7000210020FDF706
