:020000041A04DC
:10000000008400201902041AE901041AF101041AFB
:1000100000000000000000000000000000000000E0
:10002000000000000000000000000000F901041AB8
:1000300000000000000000000102041A0902041A76
:100040001102041A1102041A1102041A000000001D
:100050001102041A1102041A1102041A1102041ADC
:100060001102041A1102041A1102041A1102041ACC
:100070001102041A1102041A1102041A1102041ABC
:100080001102041A1102041A1102041A1102041AAC
:100090001102041A1102041A1102041A1102041A9C
:1000A0001102041A1102041A1102041A1102041A8C
:1000B0001102041A1102041A1102041A1102041A7C
:1000C0009004041A00800020700200009004041ABA
:1000D00014600810000000009004041A142000109E
:1000E000000000009004041A000008100000000046
:1000F0009004041A00000010000000009004041A8C
:1001000010600810000000009004041A0000002095
:10011000000000009004041A008400200000000089
:100120009004041A00C0002000000000708200202B
:1001300000000000146008100000000014200010EF
:100140000000000000000810000000000000001087
:1001500000000000106008100000000000000020F7
:1001600000000000008400200000000000C000200B
:100170000000000080B588B000AFF860B9607A6018
:10018000BB68FB61FB68BB6100237B610AE0FB6924
:100190001A1DFA61BA69111DB96112681A607B698A
:1001A00004337B617A697B689A42F0D3C046BD46CE
:1001B00008B080BD80B584B000AF786039607B68DE
:1001C000FB600023BB6007E0FB681A1DFA60002299
:1001D0001A60BB680433BB60BA683B689A42F3D3C9
:1001E000C046BD4604B080BD80B500AFFEE7C04646
:1001F00080B500AFFEE7C04680B500AFFEE7C04661
:1002000080B500AFFEE7C04680B500AFFEE7C04650
:1002100080B500AFFEE7C04680B586B000AF1C4B8E
:100220003B611C4A3B691A601B4B7B6114E07B6994
:100230001A1D7A611B68FB607B691A1D7A611B6855
:10024000BB607B691A1D7A611B687B607A68B9683C
:10025000FB681800FFF78EFF7A69104B9A42E6D3CD
:100260000FE07B691A1D7A611B68BB607B691A1DF0
:100270007A611B687B607A68BB6811001800FFF721
:1002800099FF7A69064B9A42EBD300F0F9F8FEE742
:10029000043404400000041AC000041A2C01041A9B
:1002A0007401041A80B584B000AFF860B960FB1D1A
:1002B0001A70FB1D1B78F968BA6852018A18D35C62
:1002C000DBB25A1E9341DBB21800BD4604B080BDBC
:1002D00080B582B000AF78600A00FB1C1A70FB1C6E
:1002E0001A787B68842109018C4662449200D358B5
:1002F0001800BD4602B080BD80B582B000AF786006
:1003000008001100FB1C021C1A70BB1C0A1C1A708E
:10031000FB1C1A78BB1C1B78012199400B001900AB
:100320007B6888200001844662449200D150C04618
:10033000BD4602B080BDC04680B582B000AF7860D7
:1003400008001100FB1C021C1A70BB1C0A1C1A704E
:10035000FB1C1A78BB1C1B78012199400B0019006B
:100360007B688A200001844662449200D150C046D6
:10037000BD4602B080BDC04680B582B000AF786097
:100380000A00FB1C1A70FB1C1B785BB27A680A33EC
:100390009B00D31804331B681800BD4602B080BD13
:1003A00080B582B000AF78600A00FB1C1A707B68D1
:1003B0000B4A9A58796880235B018A18D318FA1C73
:1003C00012781A707B68064A9B5801331B051A0D78
:1003D0007B6803495A50C046BD4602B080BDC04646
:1003E0000820000080B584B000AF78607B680C4ABC
:1003F0009B587A68D35CDAB20F23FB181A707B68BB
:10040000074A9B5801331B051A0D7B6804495A5053
:100410000F23FB181B78DBB21800BD4604B080BD6B
:100420000420000080B582B000AF78607B68074A86
:100430009A58796880239B01CB58D31A5A1E93414E
:10044000DBB21800BD4602B080BDC04604200000EB
:1004500080B582B000AF78607B68064A9A587B68A6
:1004600005495B58D31A013B1B051B0D1800BD46FF
:1004700002B080BD0C20000008200000FFFFFFFF3D
:1004800001B40248844601BC604700BF01800020DF
:1004900090B589B000AF684B01221A60674B01210B
:1004A000180000F0F5F80300FB61FB697B61634B0A
:1004B0000121180000F0ECF803007B617A69FB6908
:1004C0009A424BD05E4B0321180000F0F9F803006C
:1004D0009AB20E23FB185204520C1A80594B5A4AF6
:1004E0009B585A1C574B58495A50564B574A9B5881
:1004F00001331B051B0DBB60524B554A9A58BB6814
:10050000D31A1B051B0D7B607B68032B10DC00E0FE
:10051000C0464C4AC023DB01D358002BF8D1494BCD
:100520004B4A9B5801331B051A0D464B48495A50FC
:10053000444BBA68802189018C46624452000E21E6
:1005400079180988D1523F4BBA6892007969D15025
:100550003C4B3E49BA685A507B69FB61384B0822D4
:100560000121180000F0A4F803001A0001235340F1
:10057000DBB2002B1AD0374B5B692022134015D019
:100580000F23BB6109E0334C334B180000F0B0F887
:1005900003002360BB69013BBB612F4B180000F0D7
:1005A0009FF8031E02D0BB69002BECD1294B5B697D
:1005B0000122134026D0284B180000F059F8030000
:1005C0003B613B69002B1DD0224B1B68DAB2224BEA
:1005D0001100180000F07CF83B69802B0CD8184BF8
:1005E0000A220021180000F05BF8154B01220021BF
:1005F000180000F045F805E0114B0A220021180010
:1006000000F03EF8154BDB6B0422134002D0134B75
:10061000134ADA63134BDB6B0422134002D0114BF5
:10062000114ADA63114BDB6B0422134000D13EE721
:100630000E4B0D4ADA633AE710600810005008408C
:1006400000400F40000008100C6000000460000033
:100650000860000000100840000000100040084042
:100660001906000000300C405302000000400C400E
:1006700001B40248844601BC604700BF5104041A1B
:1006800001B40248844601BC604700BF3903041A24
:1006900001B40248844601BC604700BF7903041AD4
:1006A00001B40248844601BC604700BFF902041A45
:1006B00001B40248844601BC604700BFA502041A89
:1006C00001B40248844601BC604700BFD102041A4D
:1006D00001B40248844601BC604700BFA103041A6C
:1006E00001B40248844601BC604700BF2504041AD7
:1006F00001B40248844601BC604700BFE503041A08
:040000051A040219BE
:00000001FF
